000000600001900TAVG  260     150     570     920    1120    1630    1620    1700    1720    1110     510     280   
000000600001901TAVG  300     360     780     870    1140    1520    1620    1620    1660    1030     590     250   
000000600001902TAVG  120     510     750     930    1210    1440    1670    2020    1640    1140     640     190   
000000600001903TAVG  410     300     620     920    1130    1360    1690    1820    1660    1340     600     370   
000000600001904TAVG  260     480     770     960    1290    1540    1860    1890    1620    1240     730     370   
000000600001905TAVG  340     510     510     700     930    1510    1940    2000    1920    1160     600      80   
000000600001906TAVG  290     280     500     760    1130    1700    2070    2000    1370    1110     540     380   
000000600001907TAVG  350     500     650     870    1220    1290    1720    1940    1620    1340     620     360   
000000600001908TAVG  200     390     550     770     960    1250    1860    2110    1610    1220     610     350   
000000600001909TAVG  110     230     520     780    1150    1580    1700    1810    1570    1150     730     330   
000000600001910TAVG  470     430     650     730    1040    1940    1830    1890    1500    1100     530     290   
000000600001911TAVG  180     490     290     790    1190    1650    2060    1890    1740    1310     910     380   
000000600001912TAVG  290     330     770     860    1040    1660    1790    2010    1630    1110     880     600   
000000600001913TAVG  360     330     750     810     890    1560    1940    2060    1760    1170     760     610   
000000600001914TAVG  400     440     570     840    1220    1430    1850    1880    1640    1320     750     470   
000000600001915TAVG  220     530     670     880    1210    1400    1820    1790    1670    1150     610     450   
000000600001916TAVG  390     430     630     590    1140    1240    1620    2130    1440    1190     540     360   
000000600001917TAVG  450     300     510     390    1100    1530    1890    1820    1340    1110     650     420   
000000600001918TAVG  580     240     620     780     990    1600    1870    1860    1600    1000     760     260   
000000600001919TAVG  290     490     620    1080    1270    1410    1840    1880    1590    1110     750     530   
000000600001920TAVG  580     320     670     790    1200    1590    2020    1980    1590    1270     540     590   
000000600001921TAVG  190     560     570     780    1090    1330    1620    1900    1620    1150     670     280   
000000600001922TAVG  210     470     760     760    1080    1510    1510    1780    1630    1330     720     540   
000000600001923TAVG  200     360     650     470    1010    1540    2020    2030    1900     980     290     320   
000000600001924TAVG  410     320     490     720    1050    1480    1700    1660    1480    1190     570       0   
000000600001925TAVG  120     230     560     770    1080    1660    1830    2160    1290     850     670     570   
000000600001926TAVG  320     520     650     770    1050    1500    1800    1540    1550    1220     520     210   
000000600001927TAVG  380     570     850     680     980    1550    1760    2000    1520    1150     610     540   
000000600001928TAVG  200     280     430     700    1270    1550    1890    1830    1720    1340     650     330   
000000600001929TAVG  260     450     630     750     980    1440    1840    2140    1460     980     590     450   
000000600001930TAVG   60     140     470     400    1060    1670    1820    2370    1530    1020     610     310   
000000600001931TAVG  220     290     630     730    1060    1560    2030    2080    1610    1090     840     280   
000000600001932TAVG  200     200     540     650    1070    1690    1480    1920    1580     850     600     240   
000000600001933TAVG  410     220      80     800     970    1360    1790    1750    1750    1000     640     450   
000000600001934TAVG  100     320     540     790    1150    1610    1800    1920    1560     950     630     500   
000000600001935TAVG  250     -10     390     810    1130    1630    1950    1840    1580    1010     520     200   
000000600001936TAVG  370     450     610     680    1170    1590    1760    1750    1710    1130     520     330   
000000600001937TAVG  300     250     510     760    1120    1490    1630    1590    1290     970     500     180   
000000600001938TAVG  290     460     470     790     860    1440    1970    1850    1290    1060     710     280   
000000600001939TAVG  270     590     610     860    1200    1300    1690    2060    1570    1230     880     330   
000000600001940TAVG  280     440     450     830     880    1450    1800    1790    1620    1130     500     390   
000000600001941TAVG  500     490     470     750     930    1340    1690    1830    1740    1130     650     440   
000000600001942TAVG  350     450     630    1030    1130    1310    1970    1740    1560    1310     500     320   
000000600001943TAVG  330     360     450     720    1030    1520    1920    1750    1590     950     400     290   
000000600001944TAVG  200     270     680     850    1120    1390    1630    1780    1530    1170     520     420   
000000600001945TAVG  550     640     670     830    1100    1670    1670    1500    1570    1020     630     420   
000000600001946TAVG  450     320     660     820    1120    1650    1820    1970    1670     880     670     480   
000000600001947TAVG  150     220     510     780    1110    1690    2000    2090    1720    1060    1020     600   
000000600001948TAVG  390     560     560     640     970    1570    2040    2220    1790     980     410     210   
000000600001949TAVG  270     370     450     840    1160    1870    1880    1870    1670    1450     700     680   
000000600001950TAVG  440     540     790     830    1000    1490    1780    1740    1770    1130     770     410   
000000600001951TAVG  320     320     640     850    1070    1500    1810    1700    1590    1190     670     580   
000000600001952TAVG  360     280     470     860    1090    1520    1680    1990    1650    1010     840     580   
000000600001953TAVG  440     140     600     750    1110    1470    1770    1760    1680    1160     940     470   
000000600001954TAVG  570     540     530    1070    1180    1670    2200    1840    1720     990     570     610   
000000600001955TAVG  200     400     710     820     980    1510    1690    2010    1760     960     780     480   
000000600001956TAVG  460     380     430     810    1080    1690    1910    1860    1750    1140     680     680   
000000600001957TAVG  260     560     590     780    1290    1520    1800    1890    1610    1310     830     360   
000000600001958TAVG  490     420     510     690    1130    1600    1850    1920    1700    1330     980     340   
000000600001959TAVG  410     320     360     710     980    1510    2130    2150    1580    1030     580     480   
000000600001960TAVG  540     840     710     770     960    1580    2000    1920    2140    1360     710     290   
000000600001961TAVG  530     570     740     830    1210    1550    1630    1830    1500    1150     710     410   
000000600001962TAVG  400     820     630     760    1340    1520    1790    1700    1650    1310     560     480   
000000600001963TAVG  570     790     760     880    1170    1700    1910    2100    1490    1180     930     520   
000000600001964TAVG  300     150     650     900    1220    1680    1870    1830    1380    1340     690     450   
000000600001965TAVG  440     460     650     840     890    1600    2060    2170    1770    1340    1000     590   
000000600001966TAVG  360     450    1000     900    1210    1800    1800    1850    1510    1110     850     530   
000000600001967TAVG  260     320     570     700    1110    1660    1990    2040    1650    1200     620     490   
000000600001968TAVG  320     380     610     630    1060    1560    1750    2060    1860    1320    1020     560   
000000600001969TAVG  460     660     780     760    1170    1450    1680    1800    1520    1170     580     410   
000000600001970TAVG   70     340     660     720    1190    1440    1830    2120    1800    1270     710     350   
000000600001971TAVG  240     380     590     820    1050    1550    1630    2240    1740    1400     860     500   
000000600001972TAVG  250     300     750     830    1250    1590    2020    1760    1480    1150     670     850   
000000600001973TAVG  450     430     520     780    1140    1460    1850    2020    1800    1270     770     630   
000000600001974TAVG  480     470     630     800    1180    1460    2010    1740    1480    1330     730     540   
000000600001975TAVG  420     310     650     730    1200    1290    2090    2050    1500     990     290     340   
000000600001976TAVG  230     330     530     560    1180    1560    1830    1810    1750    1240     820     360   
000000600001977TAVG  130     130     770     670    1230    1350    1570    1870    1550    1180     520     430   
000000600001978TAVG  230     170     580     780    1120    1460    1670    1820    1680    1110     600     360   
000000600001979TAVG  400     460     700     930    1330    1690    1780    2060    1660    1300     670     370   
000000600001980TAVG  370     350     560     840    1260    1450    1820    2030    1480    1220     680     320   
000000600001981TAVG  190     430     530    1000    1330    1640    1790    2040    1590    1300     700     370   
000000600001982TAVG  230      40     590     790    1160    1490    2020    1760    1770    1100     590     510   
000000600001983TAVG  160     410     380     610    1140    1520    1900    1950    1420    1130     300     440   
000000600001984TAVG  320     210     560     650    1050    1410    2040    2180    1580    1360     690     150   
000000600001985TAVG  250     430     610     760    1100    1410    1770    1800    1460    1160     620     430   
000000600001986TAVG  170     510     550     600    1170    1570    1860    1990    1610    1090     550     160   
000000600001987TAVG  230     240     720     750    1080    1830    1680    1520    1680    1280     630     380   
000000600001988TAVG   90     300     560     870    1190    1390    1630    2130    1570    1200     610     540   
000000600001989TAVG   60     250     240     920    1010    1770    1870    1860    1660    1270     880     480   
000000600001990TAVG  660     430     640     750     880    1400    1830    2040    1670    1300     730     230   
000000600001991TAVG   70     590     750     760    1290    1370    1560    1730    1470    1230     570     560   
000000600001992TAVG  510     500     660     810    1270    1570    1670    1600    1650    1170     600     450   
000000600001993TAVG  310     490     590     700    1070    1420    1890    1840    1670    1080     600     590   
000000600001994TAVG  360     390     490     620    1020    1540    1880    1920    1550    1160     720     490   
000000600001995TAVG  330     290     820     650     860    1290    1840    1900    1740    1050     640     660   
000000600001996TAVG  470     300     670     730    1200    1570    1760    1730    1450     950     800     440   
000000600001997TAVG  270     520     590     630     970    1630    1920    1960    1750    1140     640     330   
000000600001998TAVG  480     370     550     720    1430    1550    1750    1840    1620    1380     670     480   
000000600001999TAVG   90     550     540     660    1060    1670    1580    1760    1470     720     530      90   
000001200001900TAVG-9999   -9999   -9999   -9999   -9999   -9999   -9999   -9999   -9999   -9999   -9999   -9999   
000001200001901TAVG-9999   -9999   -9999   -9999   -9999   -9999   -9999   -9999   -9999   -9999   -9999   -9999   
000001200001902TAVG-9999   -9999   -9999   -9999   -9999   -9999   -9999   -9999   -9999   -9999   -9999   -9999   
000001200001903TAVG-9999   -9999   -9999   -9999   -9999   -9999   -9999   -9999   -9999   -9999   -9999   -9999   
000001200001904TAVG-9999   -9999   -9999   -9999   -9999   -9999   -9999   -9999   -9999   -9999   -9999   -9999   
000001200001905TAVG-9999   -9999   -9999   -9999   -9999   -9999   -9999   -9999   -9999   -9999   -9999   -9999   
000001200001906TAVG-9999   -9999   -9999   -9999   -9999   -9999   -9999   -9999   -9999   -9999   -9999   -9999   
000001200001907TAVG-9999   -9999   -9999   -9999   -9999   -9999   -9999   -9999   -9999   -9999   -9999   -9999   
000001200001908TAVG-9999   -9999   -9999   -9999   -9999   -9999   -9999   -9999   -9999   -9999   -9999   -9999   
000001200001909TAVG-9999   -9999   -9999   -9999   -9999   -9999   -9999   -9999   -9999   -9999   -9999   -9999   
000001200001910TAVG-9999   -9999   -9999   -9999   -9999   -9999   -9999   -9999   -9999   -9999   -9999   -9999   
000001200001911TAVG-9999   -9999   -9999   -9999   -9999   -9999   -9999   -9999   -9999   -9999   -9999   -9999   
000001200001912TAVG-9999   -9999   -9999   -9999   -9999   -9999   -9999   -9999   -9999   -9999   -9999   -9999   
000001200001913TAVG   40     140     520     620     840    1460    1820    1760    1470     910     420     360   
000001200001914TAVG   60     160     320     740    1020    1180    1640    1700    1360    1050     490     300   
000001200001915TAVG  -60     220     480     750    1020    1340    1620    1470    1500     820     350     290   
000001200001916TAVG   80     130     470     450    1010    1200    1430    1720    1210    1040     370     130   
000001200001917TAVG  100      40     340     450     900    1460    1690    1570    1140     890     380     160   
000001200001918TAVG  260      30     350     670     960    1530    1650    1620    1330     760     360      10   
000001200001919TAVG  -30     280     320     930    1090    1400    1630    1580    1420     970     440     280   
000001200001920TAVG  170      20     490     650    1120    1470    1790    1740    1410     980     370     370   
000001200001921TAVG  -60     290     390     680    1110    1370    1400    1670    1430     840     340     -80   
000001200001922TAVG    0      80     490     560     960    1430    1350    1500    1450    1000     440     240   
000001200001923TAVG  -50      90     440     310     930    1440    1850    1830    1580     910     260     100   
000001200001924TAVG   90      20     100     630     960    1300    1620    1390    1330     910     370    -270   
000001200001925TAVG  -60    -140     340     630     870    1380    1660    1950    1090     580     450     200   
000001200001926TAVG  -40     190     340     570     920    1290    1680    1290    1280     960     340    -110   
000001200001927TAVG   70     280     690     430     960    1400    1600    1750    1390     870     240     210   
000001200001928TAVG   20      70     280     480    1230    1460    1690    1680    1520    1110     440     140   
000001200001929TAVG  100     200     520     570    1000    1320    1550    1940    1180     640     480      90   
000001200001930TAVG -140    -110     280     370    1010    1660    1570    2060    1230     770     430      70   
000001200001931TAVG  -70     -10     390     650     870    1530    1790    1820    1440     890     540      70   
000001200001932TAVG -140     -50     200     700     950    1560    1420    1690    1220     580     320       0   
000001200001933TAVG  210      40    -180     650    1000    1190    1670    1370    1420     810     380     240   
000001200001934TAVG -210      70     240     690    1100    1450    1640    1600    1280     740     420     210   
000001200001935TAVG   60    -150     250     760     990    1490    1760    1630    1370     680     210     -50   
000001200001936TAVG   60     200     520     480    1180    1520    1630    1590    1460     900     280      50   
000001200001937TAVG   10      10     300     600    1080    1480    1370    1420    1190     690     310     -60   
000001200001938TAVG  -60     130     270     710     850    1330    1850    1570    1130     800     430      70   
000001200001939TAVG   30     250     310     700    1150    1230    1550    1690    1240     990     570     140   
000001200001940TAVG -120     160     250     780     610    1350    1690    1590    1430     860     240     110   
000001200001941TAVG  160     200     260     620     760    1120    1500    1620    1550     930     450     110   
000001200001942TAVG   10      80     430     830    1030    1310    1770    1490    1380    1040     400      20   
000001200001943TAVG   30      30     360     640     950    1380    1780    1480    1340     690     290     -60   
000001200001944TAVG-9999   -9999   -9999   -9999   -9999   -9999   -9999   -9999   -9999   -9999   -9999   -9999   
000001200001945TAVG-9999   -9999   -9999   -9999   -9999   -9999   -9999   -9999   -9999   -9999   -9999   -9999   
000001200001946TAVG   50     100     530     660    1010    1500    1640    1620    1330     510     420     110   
000001200001947TAVG -220      40     380     670     980    1640    1820    1860    1520     950     710     380   
000001200001948TAVG   40     270     330     540    1070    1460    1920    1900    1520     770     260     -40   
000001200001949TAVG  -50      30     410     750    1070    1820    1690    1600    1480    1250     620     260   
000001200001950TAVG  110     300     530     630    1060    1420    1690    1460    1550     920     600      70   
000001200001951TAVG   30      50     420     820    1070    1390    1670    1480    1410     930     410     380   
000001200001952TAVG  110      50     220     670     930    1460    1480    1720    1450     700     720     310   
000001200001953TAVG  110     -40     390     620    1090    1430    1680    1540    1460     960     630     130   
000001200001954TAVG  200     240     290     940    1220    1610    1980    1570    1500     730     360     310   
000001200001955TAVG   50      50     470     670     990    1410    1580    1740    1560     850     610     130   
000001200001956TAVG  270      60     190     730     980    1530    1840    1590    1430     940     530     530   
000001200001957TAVG   40     280     500     710    1220    1420    1570    1600    1320    1100     560      70   
000001200001958TAVG  250     160     310     520     880    1350    1560    1650    1360    1020     750      90   
000001200001959TAVG  130     -50      80     620     940    1450    1990    1860    1380     980     330     170   
000001200001960TAVG  250     480     480     670     950    1460    1830    1770    1890    1220     340     -70   
000001200001961TAVG  280     260     630     730    1140    1390    1480    1550    1250     890     460     100   
000001200001962TAVG  190     530     400     520    1250    1390    1640    1330    1350    1060     370     220   
000001200001963TAVG  190     440     500     680    1080    1550    1760    1890    1260     990     630     270   
000001200001964TAVG -120    -150     430     810    1130    1510    1760    1580    1140    1010     390     190   
000001200001965TAVG  270      50     410     660     890    1530    1920    2040    1470    1130     740     310   
000001200001966TAVG  130     180     800     710    1120    1690    1570    1540    1310     920     620     190   
000001200001967TAVG  -20      40     480     490    1020    1560    1820    1840    1460    1030     340      80   
000001200001968TAVG   10      90     310     580     970    1560    1650    1890    1560    1000     750     250   
000001200001969TAVG  110     370     540     640    1080    1320    1600    1480    1270    1000     250     130   
000001200001970TAVG -260      40     390     600    1120    1350    1680    1900    1500    1040     440     130   
000001200001971TAVG  -50      80     350     730    1020    1510    1610    1940    1500    1110     620     140   
000001200001972TAVG   30      30     510     700    1220    1460    1920    1600    1410     880     430     510   
000001200001973TAVG   80     230     350     690    1250    1380    1650    1810    1460    1050     570     350   
000001200001974TAVG  250     220     470     690     910    1420    1860    1490    1390    1130     350     250   
000001200001975TAVG   90      40     400     700    1070    1160    1880    1810    1250     750      60      60   
000001200001976TAVG   20     130     270     350    1020    1510    1780    1600    1510     990     560     290   
000001200001977TAVG -150    -130     560     610    1070    1320    1440    1620    1450     970     320     110   
000001200001978TAVG  -80    -100     430     580    1010    1340    1500    1500    1340     770     420     100   
000001200001979TAVG  -10     120     600     750    1240    1680    1580    1710    1480    1120     380      80   
000001200001980TAVG  110      20     220     590    1260    1450    1620    1760    1170     950     360      70   
000001200001981TAVG -160     100     330     780    1280    1430    1730    1720    1420    1030     410      50   
000001200001982TAVG   40    -160     420     760    1100    1490    1870    1530    1530     890     300     220   
000001200001983TAVG -190     110     230     570    1110    1380    1780    1680    1340     840      90     110   
000001200001984TAVG  -80      20     420     600    1010    1270    1800    1930    1390     980     400     -30   
000001200001985TAVG  -40     110     440     590    1020    1350    1680    1520    1280    1030     240     270   
000001200001986TAVG -230      60     380     510    1010    1390    1660    1840    1330     780     230    -110   
000001200001987TAVG  -80     -80     480     590     940    1760    1530    1290    1540     990     470     140   
000001200001988TAVG -220      10     440     770    1120    1330    1350    1830    1400     930     520     110   
000001200001989TAVG -210    -110      30     640     930    1470    1760    1630    1550     970     620     240   
000001200001990TAVG  480     250     320     580     840    1300    1640    1790    1400    1050     560      30   
000001200001991TAVG -210     360     420     700    1150    1240    1510    1450    1320     980     290     240   
000001200001992TAVG  140     120     390     780    1080    1510    1510    1410    1410     980     330     140   
000001200001993TAVG   70     180     470     640     980    1220    1730    1680    1420     840     330     300   
000001200001994TAVG  -40     160     310     500     980    1330    1570    1630    1330     880     560     300   
000001200001995TAVG  -40      20     530     520     760    1310    1590    1660    1380     810     350     410   
000001200001996TAVG  200     210     450     730     960    1520    1510    1380    1190     710     480     240   
000001200001997TAVG   60     130     330     510     910    1510    1830    1710    1420     910     410     110   
000001200001998TAVG  200      70     190     540    1300    1510    1640    1580    1430    1040     420     200   
000001200001999TAVG -170     320     380     520     930    1580    1460    1640    1280     490     390    -120   
000001500001900TAVG   60      30     290     770     980    1400    1540    1700    1690    1060     430      90   
000001500001901TAVG  110     210     610     690    1070    1430    1480    1460    1490     920     480     150   
000001500001902TAVG  -60     330     510     810    1090    1340    1590    1830    1520    1020     600     -90   
000001500001903TAVG  330     210     370     710     980    1250    1550    1790    1440    1290     570     170   
000001500001904TAVG   90     310     610     860    1120    1400    1850    1790    1530    1150     610     320   
000001500001905TAVG   70     210     320     460     780    1500    1830    1840    1740    1010     570     -60   
000001500001906TAVG   30     200     250     590     930    1430    2040    1860    1320    1040     420     330   
000001500001907TAVG  130     210     410     760    1040    1120    1570    1780    1390    1320     590     190   
000001500001908TAVG  -80     170     270     480     870    1210    1750    1990    1540    1060     580     260   
000001500001909TAVG  -70      90     380     620     940    1390    1580    1560    1410    1040     580     130   
000001500001910TAVG  320     360     470     620     920    1790    1630    1760    1460    1050     470      10   
000001500001911TAVG  -70     240     150     650    1010    1570    1840    1780    1720    1250     930     200   
000001500001912TAVG   20     220     510     740     990    1490    1610    1830    1630    1100     790     290   
000001500001913TAVG  150     120     490     540     780    1400    1790    1710    1550    1070     600     470   
000001500001914TAVG  110     220     310     690     990    1220    1750    1860    1400    1220     670     380   
000001500001915TAVG  -80     360     430     640     970    1330    1750    1580    1580     910     530     440   
000001500001916TAVG  100     190     470     480    1030    1200    1490    1910    1220    1030     490     360   
000001500001917TAVG  180      40     380     400     920    1500    1680    1660    1320    1030     540     250   
000001500001918TAVG  360      60     360     670     900    1480    1670    1640    1450     880     540      80   
000001500001919TAVG   80     320     330     840    1100    1410    1580    1650    1440    1130     560     280   
000001500001920TAVG  260     130     470     560    1050    1440    1810    1770    1520    1110     620     450   
000001500001921TAVG   60     440     450     580     970    1320    1460    1730    1550    1050     570     140   
000001500001922TAVG  -50     120     610     620     910    1470    1340    1530    1600    1140     600     280   
000001500001923TAVG  -50     210     480     430     960    1420    1940    1850    1720     950     360     270   
000001500001924TAVG  170     190     180     590     950    1420    1510    1520    1400    1070     460    -190   
000001500001925TAVG  -40      90     400     600     940    1470    1620    2010    1200     820     520     270   
000001500001926TAVG   20     300     390     550     930    1320    1570    1390    1380    1050     480      70   
000001500001927TAVG  220     300     720     490     910    1480    1700    1810    1450     940     400     310   
000001500001928TAVG   20     160     180     420    1060    1450    1710    1810    1620    1230     500     120   
000001500001929TAVG   30     150     330     640     880    1330    1660    1970    1280     800     570     160   
000001500001930TAVG -180    -100     280     330    1000    1530    1690    2060    1370     950     590     110   
000001500001931TAVG    0      10     390     630     850    1520    1880    1860    1500    1050     700      60   
000001500001932TAVG  -80      10     240     620     830    1580    1440    1810    1380     810     490      80   
000001500001933TAVG  260     -10    -130     580     770    1140    1620    1540    1450     820     420     240   
000001500001934TAVG -100      80     260     630    1050    1430    1670    1780    1480     830     450     390   
000001500001935TAVG  100    -130     210     680     810    1490    1730    1680    1390     840     390      90   
000001500001936TAVG  130     260     490     530    1100    1480    1710    1710    1510    1040     410     100   
000001500001937TAVG  100      80     380     570    1090    1410    1390    1480    1200     970     320       0   
000001500001938TAVG  120     210     340     570     820    1300    1760    1580    1240    1010     620     190   
000001500001939TAVG   40     320     380     700     990    1210    1540    1780    1430    1200     780     170   
000001500001940TAVG  -60     180     170     720     750    1220    1790    1660    1570    1010     380     220   
000001500001941TAVG  180     170     270     580     780    1270    1510    1600    1600    1040     560     230   
000001500001942TAVG  180     260     380     790    1000    1310    1810    1610    1450    1060     580     130   
000001500001943TAVG   70      20     400     520     980    1360    1760    1600    1450    1000     320      30   
000001500001944TAVG-9999   -9999   -9999   -9999   -9999   -9999   -9999   -9999   -9999   -9999   -9999   -9999   
000001500001945TAVG-9999   -9999   -9999   -9999   -9999   -9999   -9999   -9999   -9999   -9999   -9999   -9999   
000001500001946TAVG  210     270     410     720     970    1530    1620    1840    1440     770     560     260   
000001500001947TAVG -170     140     500     590     930    1570    1880    1920    1650    1100     870     530   
000001500001948TAVG  160     250     370     520     850    1540    1900    2040    1580     920     350    -110   
000001500001949TAVG  120     180     340     710    1080    1800    1650    1750    1540    1500     670     340   
000001500001950TAVG  110     470     640     750     960    1470    1730    1540    1640    1060     740     200   
000001500001951TAVG   50     120     400     720     960    1450    1680    1530    1380    1060     550     420   
000001500001952TAVG  130     210     270     620     910    1430    1510    1840    1560     930     710     320   
000001500001953TAVG  170      10     280     690     960    1560    1660    1680    1600    1120     880     270   
000001500001954TAVG  280     260     170     910    1200    1580    2050    1680    1590     930     580     420   
000001500001955TAVG   10     230     450     760     900    1370    1600    1840    1630     950     680     230   
000001500001956TAVG  300     200      90     560    1090    1680    1820    1720    1630    1070     580     520   
000001500001957TAVG  100     370     310     620    1120    1440    1570    1740    1550    1230     670     120   
000001500001958TAVG  260     260     290     520     970    1460    1630    1800    1510    1200     940     210   
000001500001959TAVG  200     140     210     560     850    1360    2010    1880    1490     950     480     290   
000001500001960TAVG  260     590     570     740     870    1540    1830    1670    2010    1390     490      80   
000001500001961TAVG  350     410     640     630    1020    1450    1470    1760    1470    1010     520     260   
000001500001962TAVG  210     610     460     590    1230    1480    1640    1530    1500    1180     460     310   
000001500001963TAVG  330     500     530     680    1040    1550    1700    1880    1390    1220     740     300   
000001500001964TAVG    0     -60     370     700    1150    1600    1730    1600    1240    1110     510     260   
000001500001965TAVG  230     220     500     750     770    1530    2010    2030    1590    1270     830     420   
000001500001966TAVG  170     230     720     720    1130    1670    1710    1760    1390     970     770     330   
000001500001967TAVG   40     180     410     570     920    1530    1870    1880    1510    1110     550     220   
000001500001968TAVG   70     150     480     550    1000    1530    1590    2000    1700    1180     970     280   
000001500001969TAVG  170     360     530     570    1010    1370    1520    1560    1360    1160     440     180   
000001500001970TAVG -170      90     450     630    1050    1400    1750    1930    1700    1060     590     170   
000001500001971TAVG  -20     190     410     720     960    1390    1600    1950    1710    1300     760     290   
000001500001972TAVG   30     130     540     760    1150    1520    1830    1640    1470    1040     500     650   
000001500001973TAVG  240     250     280     590    1040    1350    1690    1940    1630    1160     710     450   
000001500001974TAVG  250     270     410     550    1000    1430    1760    1500    1440    1220     510     410   
000001500001975TAVG   50     120     330     590     960    1260    1900    1880    1320     910     280     190   
000001500001976TAVG  -30     150     250     470    1060    1480    1730    1740    1720    1030     590     360   
000001500001977TAVG   20     -50     550     550    1030    1340    1540    1730    1490    1070     430     260   
000001500001978TAVG -130      20     410     590     960    1370    1560    1680    1450    1050     580     200   
000001500001979TAVG   90     200     590     780    1180    1490    1790    1810    1660    1200     480     190   
000001500001980TAVG  110     120     320     600    1190    1400    1640    1900    1260    1050     570     110   
000001500001981TAVG  -50     200     330     820    1280    1470    1790    1800    1450    1250     610     110   
000001500001982TAVG   70    -100     350     730    1120    1470    1880    1630    1650    1050     410     310   
000001500001983TAVG  -80     310     110     550    1110    1330    1760    1710    1450     990     170     130   
000001500001984TAVG  130      30     320     600    1090    1350    1920    1940    1490    1160     560      30   
000001500001985TAVG  110     220     400     570     900    1370    1650    1580    1380    1120     470     390   
000001500001986TAVG -120     240     390     460    1040    1430    1700    1950    1500     960     460      70   
000001500001987TAVG    0      10     440     680    1050    1770    1510    1320    1630    1220     560     160   
000001500001988TAVG  -60       0     380     790    1120    1420    1530    1910    1470    1090     610     390   
000001500001989TAVG -260     -50      20     760     850    1540    1770    1780    1600    1090     760     350   
000001500001990TAVG  490     350     370     660     800    1210    1680    1870    1560    1150     650     110   
000001500001991TAVG -190     420     450     660    1140    1190    1540    1540    1320    1030     460     320   
000001500001992TAVG  270     230     400     670    1050    1480    1550    1480    1580    1070     470     250   
000001500001993TAVG   50     250     390     500     840    1330    1780    1750    1510     990     600     430   
000001500001994TAVG   60     240     320     390     860    1370    1660    1680    1520     970     660     280   
000001500001995TAVG   80      90     490     480     790    1340    1720    1690    1530     940     560     470   
000001500001996TAVG  270     160     450     700    1010    1470    1660    1570    1400     990     610     210   
000001500001997TAVG  110     220     270     380     930    1420    1830    1850    1490    1070     590     140   
000001500001998TAVG  260     200     340     580    1320    1390    1680    1660    1570    1250     580     290   
000001500001999TAVG  -90     370     410     570     910    1580    1460    1680    1400     710     480       0   
000001600001900TAVG-9999   -9999   -9999   -9999   -9999   -9999   -9999   -9999   -9999   -9999   -9999   -9999   
000001600001901TAVG-9999   -9999   -9999   -9999   -9999   -9999   -9999   -9999   -9999   -9999   -9999   -9999   
000001600001902TAVG-9999   -9999   -9999   -9999   -9999   -9999   -9999   -9999   -9999   -9999   -9999   -9999   
000001600001903TAVG-9999   -9999   -9999   -9999   -9999   -9999   -9999   -9999   -9999   -9999   -9999   -9999   
000001600001904TAVG-9999   -9999   -9999   -9999   -9999   -9999   -9999   -9999   -9999   -9999   -9999   -9999   
000001600001905TAVG-9999   -9999   -9999   -9999   -9999   -9999   -9999   -9999   -9999   -9999   -9999   -9999   
000001600001906TAVG-9999   -9999   -9999   -9999   -9999   -9999   -9999   -9999   -9999   -9999   -9999   -9999   
000001600001907TAVG-9999   -9999   -9999   -9999   -9999   -9999   -9999   -9999   -9999   -9999   -9999   -9999   
000001600001908TAVG-9999   -9999   -9999   -9999   -9999   -9999   -9999   -9999   -9999   -9999   -9999   -9999   
000001600001909TAVG-9999   -9999   -9999   -9999   -9999   -9999   -9999   -9999   -9999   -9999   -9999   -9999   
000001600001910TAVG-9999   -9999   -9999   -9999   -9999   -9999   -9999   -9999   -9999   -9999   -9999   -9999   
000001600001911TAVG-9999   -9999   -9999   -9999   -9999   -9999   -9999   -9999   -9999   -9999   -9999   -9999   
000001600001912TAVG-9999   -9999   -9999   -9999   -9999   -9999   -9999   -9999   -9999   -9999   -9999   -9999   
000001600001913TAVG-9999   -9999   -9999   -9999   -9999   -9999   -9999   -9999   -9999   -9999   -9999   -9999   
000001600001914TAVG-9999   -9999   -9999   -9999   -9999   -9999   -9999   -9999   -9999   -9999   -9999   -9999   
000001600001915TAVG-9999   -9999   -9999   -9999   -9999   -9999   -9999   -9999   -9999   -9999   -9999   -9999   
000001600001916TAVG-9999   -9999   -9999   -9999   -9999   -9999   -9999   -9999   -9999   -9999   -9999   -9999   
000001600001917TAVG-9999   -9999   -9999   -9999   -9999   -9999   -9999   -9999   -9999   -9999   -9999   -9999   
000001600001918TAVG-9999   -9999   -9999   -9999   -9999   -9999   -9999   -9999   -9999   -9999   -9999   -9999   
000001600001919TAVG-9999   -9999   -9999   -9999   -9999   -9999   -9999   -9999   -9999   -9999   -9999   -9999   
000001600001920TAVG-9999   -9999   -9999   -9999   -9999   -9999   -9999   -9999   -9999   -9999   -9999   -9999   
000001600001921TAVG-9999   -9999   -9999   -9999   -9999   -9999   -9999   -9999   -9999   -9999   -9999   -9999   
000001600001922TAVG-9999   -9999   -9999   -9999   -9999   -9999   -9999   -9999   -9999   -9999   -9999   -9999   
000001600001923TAVG-9999   -9999   -9999   -9999   -9999   -9999   -9999   -9999   -9999   -9999   -9999   -9999   
000001600001924TAVG-9999   -9999   -9999   -9999   -9999   -9999   -9999   -9999   -9999   -9999   -9999   -9999   
000001600001925TAVG   20     110     470     770    1100    1520    1920    2090    1250     870     650     300   
000001600001926TAVG  130     480     510     710    1000    1440    1610    1490    1570    1210     590     220   
000001600001927TAVG  320     290     710     530     970    1590    1790    1850    1530    1100     470     340   
000001600001928TAVG  140     320     220     620    1180    1620    1860    1830    1620    1220     580     130   
000001600001929TAVG  160     220     490     800     990    1450    1710    1930    1380     920     610     380   
000001600001930TAVG   50     -40     390     400    1050    1790    1900    2170    1400    1060     650     180   
000001600001931TAVG   70     220     560     770     950    1560    1950    1960    1620    1120     790     270   
000001600001932TAVG  110     130     390     660    1050    1690    1550    1910    1550     820     630     160   
000001600001933TAVG  340      60     -90     730    1050    1150    1800    1620    1630     960     560     370   
000001600001934TAVG   60     200     420     820    1170    1470    1860    1960    1520     970     470     410   
000001600001935TAVG  150     -70     260     810    1010    1570    1900    1850    1570     840     580     200   
000001600001936TAVG  300     340     570     640    1200    1630    1780    1730    1680    1190     550     190   
000001600001937TAVG  100     130     440     720    1100    1540    1530    1550    1320    1030     470     120   
000001600001938TAVG  180     380     440     700     920    1480    1910    1750    1400    1150     650     240   
000001600001939TAVG  170     430     510     910    1130    1260    1640    1800    1460    1230     850     240   
000001600001940TAVG   80     440     350     800     970    1490    1820    1740    1650    1190     570     370   
000001600001941TAVG  290     300     500     720     940    1310    1630    1650    1620    1120     600     360   
000001600001942TAVG  290     370     490     890    1190    1420    1910    1630    1550    1180     550     290   
000001600001943TAVG  280     250     450     660    1000    1560    1840    1640    1530    1000     440     180   
000001600001944TAVG   60     180     570     740    1160    1410    1680    1750    1510    1200     490     370   
000001600001945TAVG  320     380     540     780     960    1690    1610    1380    1460     950     760     340   
000001600001946TAVG  250     330     660     750    1110    1580    1720    1880    1550     900     570     400   
000001600001947TAVG  -70     190     650     770    1080    1650    1850    1890    1710    1160     930     550   
000001600001948TAVG  290     440     510     550    1000    1630    1980    2040    1670     900     450     -30   
000001600001949TAVG  200     210     460     800    1110    1900    1850    1820    1690    1590     730     460   
000001600001950TAVG  260     540     690     710    1150    1590    1850    1650    1690    1010     720     330   
000001600001951TAVG  180     250     510     810    1040    1600    1800    1580    1500    1100     650     540   
000001600001952TAVG  260     190     390     820    1020    1570    1680    1830    1640     900     780     510   
000001600001953TAVG  260      60     350     790    1070    1560    1770    1790    1690    1090     990     380   
000001600001954TAVG  430     340     350    1030    1250    1660    2030    1780    1620     980     590     480   
000001600001955TAVG  230     290     570     760     950    1410    1640    1840    1740    1000     730     420   
000001600001956TAVG  430     310     280     830    1200    1790    1990    1710    1660    1230     790     670   
000001600001957TAVG  210     580     460     800    1240    1520    1750    1770    1590    1390     760     290   
000001600001958TAVG  320     310     450     680    1130    1480    1810    1800    1630    1320     970     320   
000001600001959TAVG  320     120     210     680     960    1430    2020    2090    1510    1090     590     370   
000001600001960TAVG  320     690     740     850     990    1680    1980    1760    2120    1430     630     130   
000001600001961TAVG  390     450     690     840    1170    1550    1670    1840    1540    1110     660     420   
000001600001962TAVG  270     680     630     560    1310    1610    1770    1570    1540    1320     640     300   
000001600001963TAVG  400     590     650     790    1150    1700    1910    1970    1470    1350     740     470   
000001600001964TAVG  190     -50     550     770    1240    1680    1850    1810    1230    1350     680     430   
000001600001965TAVG  310     300     540     690     990    1630    2090    2110    1670    1270     990     510   
000001600001966TAVG  310     230     740     850    1260    1780    1770    1840    1480    1110     890     420   
000001600001967TAVG  250     250     530     610    1100    1700    1980    1940    1630    1180     680     300   
000001600001968TAVG  240     340     470     720    1060    1630    1730    2020    1780    1310    1010     410   
000001600001969TAVG  290     410     730     750    1160    1480    1620    1600    1530    1220     560     200   
000001600001970TAVG    0     210     550     720    1190    1470    1790    2010    1760    1200     700     260   
000001600001971TAVG  120     310     480     800    1040    1570    1680    2110    1790    1380     790     340   
000001600001972TAVG  160     280     670     800    1310    1560    2020    1630    1470    1190     630     740   
000001600001973TAVG  350     310     470     750    1260    1430    1840    2010    1700    1260     820     580   
000001600001974TAVG  410     290     570     700    1190    1500    1970    1610    1570    1310     710     620   
000001600001975TAVG  280     180     570     680    1170    1340    1980    1960    1480     990     310     210   
000001600001976TAVG   60     210     380     500    1210    1600    1880    1790    1630    1190     670     510   
000001600001977TAVG   80      10     800     690    1210    1450    1490    1840    1420    1170     620     250   
000001600001978TAVG   20     120     510     770    1170    1460    1630    1670    1600    1120     630     320   
000001600001979TAVG  270     250     610     900    1390    1660    1790    1960    1690    1240     620     320   
000001600001980TAVG  240     220     480     700    1240    1460    1780    1960    1390    1130     670     270   
000001600001981TAVG   20     400     510     920    1350    1610    1810    1930    1630    1260     690     200   
000001600001982TAVG  240     -40     490     710    1210    1490    1980    1640    1630    1090     480     370   
000001600001983TAVG  -10     350     270     620    1100    1540    1910    1790    1540    1080     340     260   
000001600001984TAVG  160      90     490     630    1140    1400    1940    2060    1530    1150     640     210   
000001600001985TAVG  170     210     600     680    1020    1480    1760    1720    1430    1260     570     460   
000001600001986TAVG  -30     330     580     550    1120    1510    1760    2040    1540    1120     560     150   
000001600001987TAVG  150      90     590     760    1040    1900    1640    1390    1650    1250     620     290   
000001600001988TAVG  -40     250     540     830    1220    1470    1700    2050    1560    1230     690     460   
000001600001989TAVG -170      20      10     870    1060    1680    1790    1800    1680    1190     800     370   
000001600001990TAVG  500     360     510     830     970    1330    1790    1960    1600    1330     630     190   
000001600001991TAVG   10     510     590     700    1330    1300    1660    1700    1390    1130     620     380   
000001600001992TAVG  320     280     540     800    1190    1500    1710    1530    1670    1240     560     310   
000001600001993TAVG  120     320     500     710    1000    1580    1920    1860    1590     960     610     410   
000001600001994TAVG  200     350     430     530    1050    1520    1780    1820    1610    1120     710     400   
000001600001995TAVG  140     240     710     690     890    1370    1910    1780    1570    1070     640     730   
000001600001996TAVG  240     210     500     770    1080    1610    1730    1650    1410     970     710     330   
000001600001997TAVG  270     380     430     670    1050    1480    1950    1920    1560    1090     680     280   
000001600001998TAVG  340     330     450     680    1430    1460    1720    1710    1560    1290     590     410   
000001600001999TAVG  -10     400     520     640    1050    1690    1600    1750    1510     660     520     130   
000001700001900TAVG -330    -220     130     570     690    1050    1140    1340    1270     800      80    -320   
000001700001901TAVG -240     -70     430     390     700    1090    1120    1210    1110     530      90     -90   
000001700001902TAVG -410     130     310     490     860    1020    1250    1520    1280     710     220    -370   
000001700001903TAVG   30    -170      50     530     760     830    1210    1310    1020     910     180    -220   
000001700001904TAVG -340      30     200     580     810    1100    1560    1530    1110     780     280    -140   
000001700001905TAVG -230     -70     -80     120     480    1160    1500    1350    1430     710     180    -350   
000001700001906TAVG -330    -120     -70     460     720    1140    1650    1520     950     650     100      30   
000001700001907TAVG -220    -240     200     500     790     870    1230    1460    1080     840     170     -50   
000001700001908TAVG -310    -130      40     180     660     860    1390    1560    1150     710     160    -110   
000001700001909TAVG -370    -210      90     360     610    1000    1180    1110    1090     790     120     -90   
000001700001910TAVG -100      30     250     410     600    1380    1290    1320    1100     640      80    -320   
000001700001911TAVG -340    -120    -160     260     740    1240    1480    1420    1230     890     510    -100   
000001700001912TAVG -370      30     330     490     680    1100    1290    1330    1290     800     560     -70   
000001700001913TAVG -220    -190     140     340     630    1030    1430    1410    1290     720     190      90   
000001700001914TAVG -190      10      10     400     710     890    1300    1430    1050     810     330      60   
000001700001915TAVG -340       0     260     420     710     960    1370    1160    1210     550      50      50   
000001700001916TAVG -320      10     130     270     800     900    1080    1560     930     750     130     -80   
000001700001917TAVG -120    -190     -70     200     600    1170    1280    1240     910     720     120     -70   
000001700001918TAVG   20    -260      80     490     630    1220    1210    1200    1050     610     180    -130   
000001700001919TAVG -220     150     100     610     740    1060    1290    1330    1140     740     200     -20   
000001700001920TAVG  -90    -100     340     240     740    1030    1460    1400    1160     670      90      20   
000001700001921TAVG -180      60     220     290     760     990    1020    1290    1150     630     140    -270   
000001700001922TAVG -360    -130     280     480     670    1180     950    1230    1240     760     210     -50   
000001700001923TAVG -400       0     250     200     650    1040    1620    1460    1470     680      70    -190   
000001700001924TAVG -170    -180    -170     330     650    1010    1240    1090     890     630      20    -440   
000001700001925TAVG -320    -320      20     310     640    1030    1330    1670     880     420     190    -150   
000001700001926TAVG -350     -50      80     320     660     900    1280     940    1040     670     160    -280   
000001700001927TAVG -260     -80     430      90     630    1100    1290    1370    1150     670      50     -70   
000001700001928TAVG -220    -160      20     200     900    1240    1460    1410    1280     880     170    -210   
000001700001929TAVG -190    -190      50     260     620    1070    1220    1560     970     490     290    -150   
000001700001930TAVG -510    -450      20     180     720    1230    1360    1710    1000     670     210    -130   
000001700001931TAVG -330    -230     160     470     560    1210    1440    1430    1030     620     300    -300   
000001700001932TAVG -370    -240     -20     330     560    1260    1100    1400    1040     480     140    -260   
000001700001933TAVG  -60    -310    -470     290     610     840    1370    1120    1110     510     150     -60   
000001700001934TAVG -490    -170      90     390     840    1140    1320    1460    1120     540      40     -60   
000001700001935TAVG -190    -350     -50     540     600    1100    1280    1320    1080     470     -20    -260   
000001700001936TAVG -150    -100     170     240     860    1260    1400    1330    1250     670      80    -220   
000001700001937TAVG -200    -280     110     340     750    1100     990    1090     970     640     -30    -270   
000001700001938TAVG -190     -40      60     360     640     980    1430    1200     940     600     210     -90   
000001700001939TAVG -200      40     110     430     750    1000    1210    1310     960     820     220    -140   
000001700001940TAVG -320     -10     -10     560     420    1050    1380    1340    1190     770     -20    -170   
000001700001941TAVG  -40    -180     -20     390     380     800    1060    1280    1180     660     270    -190   
000001700001942TAVG  -90     -20      80     490     830    1000    1430    1290    1260     820     170    -250   
000001700001943TAVG-9999   -9999   -9999   -9999   -9999   -9999   -9999   -9999   -9999   -9999   -9999   -9999   
000001700001944TAVG-9999   -9999   -9999   -9999   -9999   -9999   -9999   -9999   -9999   -9999   -9999   -9999   
000001700001945TAVG-9999   -9999   -9999   -9999   -9999   -9999   -9999   -9999   -9999   -9999   -9999   -9999   
000001700001946TAVG -180     -60     200     470     740    1130    1310    1440    1090     390     140     -70   
000001700001947TAVG -490     -80     190     400     580    1310    1530    1520    1370     750     470     160   
000001700001948TAVG -200      10      30     290     650    1150    1610    1620    1310     410      70    -430   
000001700001949TAVG -250    -170      80     420     800    1490    1360    1310    1240     980     310    -100   
000001700001950TAVG -200     150     310     350     640    1170    1380    1100    1380     680     370    -220   
000001700001951TAVG -260    -290     220     450     680    1110    1370    1140     980     650     180     -30   
000001700001952TAVG -210    -170      30     360     600    1060    1250    1340    1150     620     360      40   
000001700001953TAVG -240    -380      50     460     650    1160    1380    1300    1220     690     460    -100   
000001700001954TAVG  -40      20       0     670    1000    1200    1600    1230    1260     630     270      40   
000001700001955TAVG -290       0     120     450     690    1090    1240    1380    1230     670     390    -170   
000001700001956TAVG    0     -30     -20     410     820    1370    1480    1300    1100     820     290     240   
000001700001957TAVG -270      20     260     330     710    1040    1200    1260    1140     970     240    -210   
000001700001958TAVG  -50    -120     140     260     690    1100    1250    1390    1170     910     480    -180   
000001700001959TAVG -190    -230    -160     330     520    1040    1650    1500    1150     710     100     -80   
000001700001960TAVG   10     210     190     490     720    1230    1440    1320    1630     960     160    -290   
000001700001961TAVG  -50     210     450     420     860    1090    1110    1400    1080     650     110     -70   
000001700001962TAVG  -50     250     160     280     900    1160    1340    1120    1160     860      70     -40   
000001700001963TAVG   40     140     320     450     870    1270    1420    1460    1030     860     290      10   
000001700001964TAVG -320    -310      50     450     780    1240    1400    1260     930     750     180     -30   
000001700001965TAVG -110     -90     140     450     520    1170    1630    1640    1100     800     510     190   
000001700001966TAVG  -80      40     520     380     860    1340    1230    1380     980     720     280     -80   
000001700001967TAVG -200    -120     190     360     640    1260    1470    1510    1200     890     110    -210   
000001700001968TAVG -270    -100     100     280     590    1200    1340    1630    1270     870     480     -70   
000001700001969TAVG -120     -40     310     400     810     920    1220    1190     970     830      70    -240   
000001700001970TAVG -420    -200     170     390     830    1120    1370    1460    1330     790     220    -160   
000001700001971TAVG -270    -120     130     500     650    1090    1260    1540    1290     980     340     -80   
000001700001972TAVG -320    -130     280     550     870    1200    1510    1210    1100     680     120     150   
000001700001973TAVG  -80     -90      90     410     860    1030    1250    1520    1230     910     310     170   
000001700001974TAVG  -90    -100     230     360     730    1090    1510    1180    1060     980     220      10   
000001700001975TAVG  -40     -90     120     380     680     910    1600    1480    1060     420     -20    -210   
000001700001976TAVG -290     -80      10     120     730    1190    1360    1280    1350     670     330     180   
000001700001977TAVG -310    -330     320     300     690     950    1040    1280    1090     690       0    -180   
000001700001978TAVG -360    -270     180     360     810    1020    1110    1160    1000     710     230     -70   
000001700001979TAVG -220    -140     400     380     910    1190    1300    1410    1370     900     250    -260   
000001700001980TAVG -240    -160     130     360     870    1200    1450    1520     950     720     110    -210   
000001700001981TAVG -460    -110     190     470     920    1190    1470    1350    1190     840     150    -180   
000001700001982TAVG -170    -390     100     500     810    1100    1530    1220    1290     620      60    -140   
000001700001983TAVG -470     -40     -60     240     740     980    1480    1390    1130     640    -270    -250   
000001700001984TAVG -290    -220     170     440     780     930    1410    1660    1150     710     170    -280   
000001700001985TAVG -220    -210     180     340     770    1000    1370    1240    1000     840      50     -30   
000001700001986TAVG -480    -130     210     180     770    1030    1370    1570    1110     610     130    -330   
000001700001987TAVG -340    -200     260     420     650    1450    1040    1000    1300     870     210     -30   
000001700001988TAVG -420    -240     110     540     880    1090    1060    1560    1120     710     350     -80   
000001700001989TAVG -560    -330    -290     360     580    1170    1440    1360    1390     730     320     -10   
000001700001990TAVG   80      10     120     470     590     850    1340    1510    1100     830     250    -220   
000001700001991TAVG -460     120      90     390     850     770    1110    1170    1150     880     130     -60   
000001700001992TAVG  -50     -80      30     370     740    1140    1240    1110    1180     700      50    -220   
000001700001993TAVG -330     170     160     310     630     990    1410    1530    1130     590     250      20   
000001700001994TAVG -260     -80     140     270     650    1090    1340    1200    1180     690     250     -70   
000001700001995TAVG -350    -120     340     280     580    1030    1360    1410    1140     600     260     120   
000001700001996TAVG -120     -10     150     510     680    1090    1150    1150     970     700     200     -80   
000001700001997TAVG -180       0     180     110     680    1000    1470    1320    1060     670     270    -220   
000001700001998TAVG -130    -110     -30     310    1060    1040    1210    1360    1260     830     250      50   
000001700001999TAVG -500      40     160     310     740    1280    1190    1360    1070     270     120    -380   
