000000100001900TAVG-9999   -9999   -9999   -9999   -9999   -9999   -9999   -9999   -9999   -9999   -9999   -9999   
000000100001901TAVG-9999   -9999   -9999   -9999   -9999   -9999   -9999   -9999   -9999   -9999   -9999   -9999   
000000100001902TAVG-9999   -9999   -9999   -9999   -9999   -9999   -9999   -9999   -9999   -9999   -9999   -9999   
000000100001903TAVG-9999   -9999   -9999   -9999   -9999   -9999   -9999   -9999   -9999   -9999   -9999   -9999   
000000100001904TAVG-9999   -9999   -9999   -9999   -9999   -9999   -9999   -9999   -9999   -9999   -9999   -9999   
000000100001905TAVG-9999   -9999   -9999   -9999   -9999   -9999   -9999   -9999   -9999   -9999   -9999   -9999   
000000100001906TAVG-9999   -9999   -9999   -9999   -9999   -9999   -9999   -9999   -9999   -9999   -9999   -9999   
000000100001907TAVG-9999   -9999   -9999   -9999   -9999   -9999   -9999   -9999   -9999   -9999   -9999   -9999   
000000100001908TAVG-9999   -9999   -9999   -9999   -9999   -9999   -9999   -9999   -9999   -9999   -9999   -9999   
000000100001909TAVG -140    -450     130    -130     480    1080    1170    1000    1140     450     120    -440   
000000100001910TAVG -370    -460    -250      50     680     800    1110    1040     660     530    -230    -150   
000000100001911TAVG -310    -450    -130     280     680    1090     990     870     880     440     -90    -360   
000000100001912TAVG -410    -540     -30     120     580     900    1080    1370    1200     540     120    -100   
000000100001913TAVG -560    -360      10      90     550     880    1010    1170     510     210    -230    -100   
000000100001914TAVG -430    -530      10      40     330    1110    1100    1020     960     280    -340    -230   
000000100001915TAVG -580    -320    -170     100     750    1020    1260    1330     780     730     -50    -660   
000000100001916TAVG -400    -350    -190     240     690    1070     900     890     720     540     -80    -290   
000000100001917TAVG -170    -260     100     -40     640     870    1010    1230     940     480     230    -390   
000000100001918TAVG -340    -440     160     360     730     990    1230    1210     780     670     -10    -330   
000000100001919TAVG -580    -310     -40     340     410    1090    1280    1210     890     420    -240    -450   
000000100001920TAVG -280    -360    -150     -20     510     990    1020    1130     670     340     -20    -430   
000000100001921TAVG -440     -50    -210     360     640     960    1010    1020     490     570     -10      90   
000000100001922TAVG -420    -550     -60     240     500     750    1080     950     990     430    -120    -480   
000000100001923TAVG -400    -450     -70     300     580    1080    1010    1190     990     510     280     -70   
000000100001924TAVG -450    -360    -110     190     660     870    1230    1060     740     390    -140    -270   
000000100001925TAVG -450    -370      10     260     600     770    1070    1090    1030     570      80    -300   
000000100001926TAVG -270    -340      10     260     830     880    1060    1140     510     390     -10    -280   
000000100001927TAVG -240    -470    -150     410     540     690    1200    1020    1140     530    -140    -250   
000000100001928TAVG -390    -260      30     310     830     990    1010     930     840     690    -100      50   
000000100001929TAVG -300    -650     -40     430     510     980    1140    1210     480     470     100    -200   
000000100001930TAVG -490    -170     100     350     710     930    1230    1110    1070     420      20    -370   
000000100001931TAVG -450    -540    -300     200     580     890    1070    1240     780     170     110    -340   
000000100001932TAVG -280    -220     -70     -80     640    1070    1000    1180    1100     410    -180    -330   
000000100001933TAVG -560    -420     -70     310     860     810    1140     830     700     610     -60    -260   
000000100001934TAVG -380    -310      80      60     550    1070    1210    1200     710     220    -170    -180   
000000100001935TAVG -530    -270    -230     220     670     820    1340    1200     910     740     -10    -610   
000000100001936TAVG -690    -390      40     190     580    1310    1150     990    1060     610      60    -290   
000000100001937TAVG -420    -360    -180     270     590     880     910     990     810     210      10    -340   
000000100001938TAVG -450    -350      10     340     400     690    1190    1080     940     440     -90    -140   
000000100001939TAVG -330    -730    -500     140     460    1040     880    1260     910     510     210    -550   
000000100001940TAVG -430    -360     -30      50     440     940    1090    1020     690     390     -60    -230   
000000100001941TAVG -240    -370      30     250     600     800    1190    1000     870     420     120    -350   
000000100001942TAVG -400     -30    -150     370     520    1010    1140    1300     880     190    -150    -370   
000000100001943TAVG -540    -520    -260      60     760     820    1170    1050     890     590     200    -190   
000000100001944TAVG-9999   -9999   -9999   -9999   -9999   -9999   -9999   -9999   -9999   -9999   -9999   -9999   
000000100001945TAVG-9999   -9999   -9999   -9999   -9999   -9999   -9999   -9999   -9999   -9999   -9999   -9999   
000000100001946TAVG -450    -390      90     140     640     490    1090     950     740     560       0    -520   
000000100001947TAVG -540    -650    -200     370     570    1070     930    1220     830     470       0    -420   
000000100001948TAVG -640    -510     -90     280     660     890    1280    1090     480     500     -70    -260   
000000100001949TAVG -380    -460     -10     260     460     910    1070     830     920     380    -140    -360   
000000100001950TAVG -650    -230    -270     420     680     860     980    1050     840     480    -300    -410   
000000100001951TAVG -360    -380     -10      50     500     930    1210    1200     870     530     190    -390   
000000100001952TAVG -380    -370     -60     160     460     990     900    1220     990     640      90    -240   
000000100001953TAVG -450    -350     -10     -30     360     850    1150    1140     670     470    -270    -390   
000000100001954TAVG -500    -550    -270      70     310     980    1260    1300     900     380    -270    -420   
000000100001955TAVG -400    -120    -220     200     620    1110     970    1230     850     280     -30    -100   
000000100001956TAVG -250    -420    -170      20     530     750     990    1020     810     490      60    -170   
000000100001957TAVG -460    -550    -250     130     330     860     980    1150     880     620     200    -350   
000000100001958TAVG -220    -450    -100     110     680     810    1180    1020     880     470     -90    -500   
000000100001959TAVG -520    -560      50     170     750     990    1240    1200     910     500      50    -400   
000000100001960TAVG -540    -270    -130     370     670    1100     930     890     890     370     -90    -460   
000000100001961TAVG -530    -400    -100     -50     710     850    1050    1090     830     440      90    -510   
000000100001962TAVG -260     -40      10     210     580    1000    1080    1230     860     130     -90    -380   
000000100001963TAVG -560    -480      50     420     620    1010    1050     890     970     450     -90    -260   
000000100001964TAVG -430    -330    -160      10     340     850    1170    1260     630     510      20    -120   
000000100001965TAVG -420    -800     190     280     550     780    1060    1180     640     360    -200    -520   
000000100001966TAVG -520    -330      20     260     610    1030    1040    1190     810     330     -70    -370   
000000100001967TAVG -270    -460    -270     430     710    1020     990    1190     630     410    -140    -450   
000000100001968TAVG -230    -310    -160     290     750    1140    1010    1110     660     460     140    -280   
000000100001969TAVG -360    -180    -180     200     300     950    1100    1220     550     410     170    -560   
000000100001970TAVG -450    -270     -70     400     220    1030    1220     970     730     240      30    -260   
000000100001971TAVG -440    -210       0     360     800    1010    1330    1190     700     410    -340    -440   
000000100001972TAVG -600    -390    -200     250     370    1010    1090    1340    1070     330    -330    -520   
000000100001973TAVG -540    -250      70     100     540     970    1050    1220    1150     540     -60    -240   
000000100001974TAVG -380    -660     310     650     690    1090    1090    1030     690     370    -110    -280   
000000100001975TAVG -400    -420    -110     130     500     890     880    1130     860     380    -220    -400   
000000100001976TAVG -210    -390    -160      30     340     960    1250    1340     690     530     250    -320   
000000100001977TAVG -320    -410    -290     130     440    1010    1010    1090     780     240     270     -70   
000000100001978TAVG -530    -350    -300      60     420     690    1090    1060     780     350     -70    -290   
000000100001979TAVG -460    -370    -230     270     630     740    1070    1110     950     480    -120    -410   
000000100001980TAVG -370    -600      10     110     580    1070    1070    1080     930     630      70    -500   
000000100001981TAVG -230    -260    -310     200     420     700     970     930     940     630      50    -260   
000000100001982TAVG -470    -420     -50     210     500     730    1160    1050     810     300      60    -350   
000000100001983TAVG -400    -430    -260     180     510     310    1030    1080     800     340     -90     -10   
000000100001984TAVG -510    -460    -200     150     560     890    1070    1040     900     470     100    -380   
000000100001985TAVG -390    -240      60      80     600     790    1190    1230     800     210     -10    -290   
000000100001986TAVG -370    -300     -10      60     610     730     880     960     800     300    -220    -470   
000000100001987TAVG -370    -250    -100    -130     570     950     970    1130     380     190    -240    -380   
000000100001988TAVG -450    -340    -130     210     520     810    1180    1010     720     400    -280    -260   
000000100001989TAVG -470    -330    -220     -20     200     990    1090    1040     710     310     -50    -520   
000000100001990TAVG -370    -480    -280     -90     800     960     990     920     780     240     -80    -410   
000000100001991TAVG -640    -510    -360     100     460     750    1130     730     960     280    -150    -250   
000000100001992TAVG -580    -290    -110      20     680     870    1080    1110     740     320    -290    -420   
000000100001993TAVG -330    -320    -350     -50     670     870    1160    1010     760     450    -150    -350   
000000100001994TAVG -640    -660    -180    -240     410     570    1240     890     510     240    -160    -520   
000000100001995TAVG -350    -420    -250    -170     550     930    1130    1070     660     270    -200    -440   
000000100001996TAVG -670    -240    -140     130     270     880    1090    1260     690     190     -80    -530   
000000100001997TAVG -610    -510    -450     290     650     930    1170     900     750     600    -400    -470   
000000100001998TAVG -700    -480    -260     140     620     920    1170     790     840     270    -110    -720   
000000100001999TAVG -660    -500    -530     -20     320     790     980     930     730     330    -150    -520   
000000200001900TAVG -130    -230    -100      20     530     840    1190    1000     910     590     -20    -160   
000000200001901TAVG -480    -180     250     150     600     910    1170    1210     810     440     470     -70   
000000200001902TAVG  -60    -150     250     330     610     620    1370    1060     790     870     170    -110   
000000200001903TAVG -160    -110     -60     240     570     910    1000    1270     960     550     330     190   
000000200001904TAVG  -20     -60     -60     460     700     650    1350    1050     950     860     200     -10   
000000200001905TAVG -160      20      60     250     590     940    1240    1140     650     730     120     -20   
000000200001906TAVG -420    -120     260     280     490     840     970    1010    1010     660     500    -160   
000000200001907TAVG -290    -210      70    -110     740    1120    1200    1010     800     560     120     -10   
000000200001908TAVG -170    -320     -70     120     620     790    1020    1140     740     510     120      20   
000000200001909TAVG  -60    -160     260     120     640    1180    1010    1040    1230     600     280    -150   
000000200001910TAVG -120    -130      20     260     770    1000    1250    1240     680     570      50     -90   
000000200001911TAVG -110    -120      90     500     590    1080    1140    1100     980     560      40     -20   
000000200001912TAVG -120    -330     120     370     720     940    1140    1290    1210     640     380      80   
000000200001913TAVG -300      50     270     290     650     790    1210    1110     660     420     -20     130   
000000200001914TAVG -370    -340     110     270     450    1170    1280    1070    1010     430    -330      70   
000000200001915TAVG -400     -50     150     270     800    1050    1340    1320     970     890     230    -410   
000000200001916TAVG -190    -140     180     370     680     960    1010    1100     730     720     140     -50   
000000200001917TAVG  -10     -40     210     170     720     810    1190    1290    1020     610     370    -200   
000000200001918TAVG    0     -30     160     590     940    1110    1250    1240     860     830     160    -160   
000000200001919TAVG -290    -180     130     370     500    1120    1340    1220     930     630     -20    -180   
000000200001920TAVG -230      20     190     220     650    1010    1100    1210     820     400     110    -120   
000000200001921TAVG -170     230     150     380     740     930    1140    1090     580     710     310     120   
000000200001922TAVG -200    -130     140     350     590     650    1220    1210    1100     600      10    -200   
000000200001923TAVG -190    -150     140     460     860     940    1080    1340     960     670     490     -10   
000000200001924TAVG  -70    -110     130     400     600     850    1350    1090     880     590      60    -100   
000000200001925TAVG -220     -50     250     260     560     810    1160    1310    1030     670     280      10   
000000200001926TAVG  -10     -70     150     500     790     820     950    1050     630     430      50     -40   
000000200001927TAVG -150    -200    -120     390     450     930    1250    1210    1120     660      40      30   
000000200001928TAVG -100      10     100     580     850     980     920     920     810     750     240     220   
000000200001929TAVG  -40    -440     130     480     730    1080    1180    1280     560     580     200     -80   
000000200001930TAVG -160     120     330     450     800     920    1250    1240    1100     410     170     -60   
000000200001931TAVG -170    -280     -40     360     680     890    1150    1120     830     360     170    -130   
000000200001932TAVG  -70       0     160      90     850     970    1190    1300     890     480       0    -150   
000000200001933TAVG -240    -340     210     480     690     790    1250     920     930     590     -20      20   
000000200001934TAVG  -40     -10     250     100     630    1110    1330    1380     810     380     100      10   
000000200001935TAVG -140      10      20     310     770     990    1250    1320     960     850     160    -240   
000000200001936TAVG -330    -230     240     390     730    1250    1220    1150     990     670     190      50   
000000200001937TAVG -130    -150      20     260     700    1030    1050    1010     810     510      60    -180   
000000200001938TAVG -240    -150     110     350     570     840    1240    1040    1050     510     150     180   
000000200001939TAVG  -30    -470    -170     260     570     900     950    1260    1050     520     340    -230   
000000200001940TAVG -260     -90     140     210     530     890    1010    1160     830     590     290      40   
000000200001941TAVG -190    -150     260     390     490     760    1260    1140     890     660     260    -240   
000000200001942TAVG -120     190     -20     280     610    1120    1220    1460     880     430     -60    -200   
000000200001943TAVG -210    -220    -100     220     730     790    1230    1170     860     880     400      60   
000000200001944TAVG   40     -20     140     640     560    1040    1480    1240     920     390     120    -100   
000000200001945TAVG-9999   -9999   -9999   -9999   -9999   -9999   -9999   -9999   -9999   -9999   -9999   -9999   
000000200001946TAVG -110    -220     240     300     700     650    1200    1030     840     750     140    -330   
000000200001947TAVG -190    -340     -40     500     540     970    1070    1100     760     520     320    -180   
000000200001948TAVG -290    -140     100     440     850     820    1490    1140     630     640      90     -50   
000000200001949TAVG -110     -60     170     450     550     830    1190     930    1010     610     120     -80   
000000200001950TAVG -220     -60      30     500     830     910    1040    1200     930     520     -70     -80   
000000200001951TAVG  -50     -70     250     300     540     890    1300    1230     920     650     240    -170   
000000200001952TAVG -250     -20     190     340     580     900     890    1290     960     770     300     170   
000000200001953TAVG -270    -130      60     220     320     870    1110    1070     800     600     -90    -130   
000000200001954TAVG -280    -230      10     200     390    1080    1270    1240    1100     660     200    -270   
000000200001955TAVG -120       0      10     340     800    1090    1140    1300     960     440     120     -30   
000000200001956TAVG -150    -250     100      70     610     820    1050    1100     970     670     340     -50   
000000200001957TAVG -150    -210     140     350     490     880    1100    1220     970     590     540    -140   
000000200001958TAVG   30    -170     110     200     620     950    1180     970     820     570     160    -260   
000000200001959TAVG -260    -410     120     440     760    1010    1240    1250    1070     600     390    -200   
000000200001960TAVG -210      20     180     270     690    1100     950     940     880     540      90    -240   
000000200001961TAVG -230    -380     200     110     750     860    1080    1180    1030     570     230    -360   
000000200001962TAVG  -50      80     290     370     680    1060    1230    1190     950     390      10    -230   
000000200001963TAVG -250    -200     390     490     730     960    1170    1040    1120     670     150     -50   
000000200001964TAVG -160    -130     150     110     470     790    1310    1320     810     650     300     -50   
000000200001965TAVG -300    -450     480     360     570    1010    1110    1190     800     530     200    -280   
000000200001966TAVG -250     -20     290     300     680    1070    1090    1230     790     260     260     -90   
000000200001967TAVG -170    -230     110     500     790    1000    1080    1240     740     450     -10    -160   
000000200001968TAVG   20     -70     110     460     810    1000    1050    1120     860     670     270    -150   
000000200001969TAVG -170       0     -50     460     450    1080    1220    1300     690     580     250    -370   
000000200001970TAVG  -50     -90     110     530     340    1130    1210     950     810     530     140      20   
000000200001971TAVG  -30     -40     200     420     830     890    1260    1100     690     570    -100    -100   
000000200001972TAVG -310    -170      30     380     500    1040    1190    1460    1060     460      40    -240   
000000200001973TAVG -270     -30     210     340     690     940    1120    1290    1180     670     120     -10   
000000200001974TAVG -260    -450     460     680     630    1130    1140    1130     740     550      20     -20   
000000200001975TAVG -100    -220      40     270     520     900    1000    1190     920     440     150     -30   
000000200001976TAVG -120     -80      30     340     530     930    1100    1250     860     720     420     -90   
000000200001977TAVG  130     -60     -70     310     530    1150    1030    1120     850     470     300     -10   
000000200001978TAVG -280    -270    -210     140     510     860    1260    1090     890     420     150     -60   
000000200001979TAVG -270    -120      30     430     610     830    1130    1180    1050     580     240    -270   
000000200001980TAVG -120    -310     140     250     600    1050    1150    1070     920     680     190    -340   
000000200001981TAVG   60    -190    -140     340     610     690    1070    1100     930     730     220     -20   
000000200001982TAVG -260    -200     110     330     670     800    1210    1140     810     330     280    -120   
000000200001983TAVG -170    -150     160     240     520     430    1030    1040     840     580     150     120   
000000200001984TAVG -260    -250      50     350     700     950    1110    1180     990     600     270    -150   
000000200001985TAVG -400     -30     380     250     700     940    1330    1130     830     470      50       0   
000000200001986TAVG -230     -20     250      70     470     820    1000    1020     880     450     -10    -180   
000000200001987TAVG -130     -80     320    -120     660    1010    1080    1130     540     470      70    -140   
000000200001988TAVG -240    -100     120     340     580     930    1160    1080     830     580    -140    -190   
000000200001989TAVG -160    -170      50     160     320     930    1030    1030     730     280     240    -210   
000000200001990TAVG -250    -230     -10     140     830     970    1020    1040     900     370      50    -160   
000000200001991TAVG -380    -120    -340     190     500     810    1220     810    1200     360      30      60   
000000200001992TAVG -370    -160      70     280     720     930    1090    1150     810     360    -130    -210   
000000200001993TAVG -220    -160    -120     230     780     850    1180    1030     680     430     -30    -230   
000000200001994TAVG -380    -240     190     -50     480     620    1350    1040     630     380      10    -440   
000000200001995TAVG -320    -220     -90     190     550     940    1260    1190     680     270     -90    -290   
000000200001996TAVG -390    -120      40     150     430    1120    1070    1310     730     490     120    -280   
000000200001997TAVG -270    -220    -190     350     620     920    1070    1100     890     760    -100    -260   
000000200001998TAVG -480    -210     -80     180     670     970    1170     900     920     480     -60    -410   
000000200001999TAVG -470    -210    -330     120     500     790    1130    1130     830     380      90    -400   
000000400001900TAVG-9999   -9999   -9999   -9999   -9999   -9999   -9999   -9999   -9999   -9999   -9999   -9999   
000000400001901TAVG-9999   -9999   -9999   -9999   -9999   -9999   -9999   -9999   -9999   -9999   -9999   -9999   
000000400001902TAVG-9999   -9999   -9999   -9999   -9999   -9999   -9999   -9999   -9999   -9999   -9999   -9999   
000000400001903TAVG-9999   -9999   -9999   -9999   -9999   -9999   -9999   -9999   -9999   -9999   -9999   -9999   
000000400001904TAVG-9999   -9999   -9999   -9999   -9999   -9999   -9999   -9999   -9999   -9999   -9999   -9999   
000000400001905TAVG-9999   -9999   -9999   -9999   -9999   -9999   -9999   -9999   -9999   -9999   -9999   -9999   
000000400001906TAVG-9999   -9999   -9999   -9999   -9999   -9999   -9999   -9999   -9999   -9999   -9999   -9999   
000000400001907TAVG-9999   -9999   -9999   -9999   -9999   -9999   -9999   -9999   -9999   -9999   -9999   -9999   
000000400001908TAVG-9999   -9999   -9999   -9999   -9999   -9999   -9999   -9999   -9999   -9999   -9999   -9999   
000000400001909TAVG-9999   -9999   -9999   -9999   -9999   -9999   -9999   -9999   -9999   -9999   -9999   -9999   
000000400001910TAVG-9999   -9999   -9999   -9999   -9999   -9999   -9999   -9999   -9999   -9999   -9999   -9999   
000000400001911TAVG-9999   -9999   -9999   -9999   -9999   -9999   -9999   -9999   -9999   -9999   -9999   -9999   
000000400001912TAVG-9999   -9999   -9999   -9999   -9999   -9999   -9999   -9999   -9999   -9999   -9999   -9999   
000000400001913TAVG-9999   -9999   -9999   -9999   -9999   -9999   -9999   -9999   -9999   -9999   -9999   -9999   
000000400001914TAVG-9999   -9999   -9999   -9999   -9999   -9999   -9999   -9999   -9999   -9999   -9999   -9999   
000000400001915TAVG-9999   -9999   -9999   -9999   -9999   -9999   -9999   -9999   -9999   -9999   -9999   -9999   
000000400001916TAVG-9999   -9999   -9999   -9999   -9999   -9999   -9999   -9999   -9999   -9999   -9999   -9999   
000000400001917TAVG-9999   -9999   -9999   -9999   -9999   -9999   -9999   -9999   -9999   -9999   -9999   -9999   
000000400001918TAVG-9999   -9999   -9999   -9999   -9999   -9999   -9999   -9999   -9999   -9999   -9999   -9999   
000000400001919TAVG-9999   -9999   -9999   -9999   -9999   -9999   -9999   -9999   -9999   -9999   -9999   -9999   
000000400001920TAVG-9999   -9999   -9999   -9999   -9999   -9999   -9999   -9999   -9999   -9999   -9999   -9999   
000000400001921TAVG-9999   -9999   -9999   -9999   -9999   -9999   -9999   -9999   -9999   -9999   -9999   -9999   
000000400001922TAVG-9999   -9999   -9999   -9999   -9999   -9999   -9999   -9999   -9999   -9999   -9999   -9999   
000000400001923TAVG   20      30     410     650    1040    1340    1350    1720    1220    1050     590     190   
000000400001924TAVG   40      10     350     400     860    1130    1630    1520    1220     880     290     100   
000000400001925TAVG   70     170     490     330     700    1150    1530    1480    1320     950     530       0   
000000400001926TAVG   60     110     360     660    1110    1050    1260    1480    1060     860     360     180   
000000400001927TAVG   40     -60     150     570     730    1140    1580    1640    1420     990     330     260   
000000400001928TAVG  -20     290     340     580    1240    1220    1440    1410    1130    1030     430     360   
000000400001929TAVG  330    -280     220     740     990    1290    1440    1670     980     920     370     220   
000000400001930TAVG   80     310     450     650    1110    1250    1610    1650    1500     650     360     200   
000000400001931TAVG -100     100     160     610     860    1170    1520    1600    1150     620     630     180   
000000400001932TAVG   30     160     350     180     980    1170    1410    1680    1420     860     340     120   
000000400001933TAVG   50      10     330     760     910    1240    1580    1250    1330     970     200     250   
000000400001934TAVG  180     190     540     350     920    1420    1650    1760    1150     640     480     160   
000000400001935TAVG  -10      40     280     540    1060    1150    1720    1610    1350    1340     400    -100   
000000400001936TAVG    0    -130     470     610     970    1620    1580    1410    1340     890     560     170   
000000400001937TAVG  100       0     210     520     810    1340    1410    1280    1150     830     430       0   
000000400001938TAVG  -10     190     250     620     900    1030    1650    1540    1410     800     450     330   
000000400001939TAVG  130    -250    -180     510     950    1190    1250    1560    1400     930     530    -160   
000000400001940TAVG -130     100     310     390     820    1030    1350    1490    1260     910     630     200   
000000400001941TAVG  130     110     420     560     780    1040    1570    1550    1330     920     470     -50   
000000400001942TAVG  -90     320     150     580    1010    1370    1700    1750    1330     710     270    -110   
000000400001943TAVG -100     -20     180     480     990    1170    1480    1510    1230    1230     480     310   
000000400001944TAVG  320      40     350     880     760    1340    1840    1610    1360     770     530     -10   
000000400001945TAVG  -70     230     160     250     710    1260    1420    1610    1150     770     440     170   
000000400001946TAVG   20     -80     400     620     920     950    1470    1450    1190    1040     360    -230   
000000400001947TAVG  -30    -120     120     740     690    1410    1380    1460    1090     910     400    -100   
000000400001948TAVG  -80      30     390     650    1070     920    1700    1540     950     980     470     150   
000000400001949TAVG  100      30     300     550     920    1150    1430    1490    1380     890     500     110   
000000400001950TAVG -130     110     350     620    1130    1250    1430    1470    1240     840     230      50   
000000400001951TAVG  110     200     510     380     670    1150    1610    1520    1460     860     460     -20   
000000400001952TAVG  -20      90     390     520     830    1260    1410    1750    1280     990     480     230   
000000400001953TAVG -120      40     310     310     640    1180    1470    1530    1190     910     130     -30   
000000400001954TAVG   20    -120     180     410     690    1270    1770    1600    1500     970     480       0   
000000400001955TAVG  210     100     250     550    1020    1290    1390    1730    1320     840     460     200   
000000400001956TAVG   80     100     360     300     770    1070    1410    1470    1460     920     520     330   
000000400001957TAVG  -20     -80     280     560     700    1230    1400    1520    1390    1050     700      80   
000000400001958TAVG  210     -20     320     330     780    1240    1520    1430    1300     930     350     -80   
000000400001959TAVG  -20    -180     150     640    1050    1200    1460    1700    1470    1000     720      70   
000000400001960TAVG   30     160     400     410     890    1290    1280    1530    1320     830     290       0   
000000400001961TAVG    0    -120     310     380     910    1050    1530    1500    1510     930     440     -70   
000000400001962TAVG  160     270     420     550     980    1340    1680    1500    1220     690     300     -60   
000000400001963TAVG   30      80     640     750    1030    1210    1550    1420    1520     790     460     280   
000000400001964TAVG  100     110     250     380     730    1150    1450    1660    1360     930     500     200   
000000400001965TAVG -240    -220     640     690     840    1130    1480    1560    1150     820     360    -110   
000000400001966TAVG -130     140     380     460     890    1300    1450    1600    1120     570     460     160   
000000400001967TAVG  -40    -160     330     690    1030    1390    1370    1620    1080     830     310     -90   
000000400001968TAVG  250      60     290     550    1100    1300    1490    1510    1150     950     520      70   
000000400001969TAVG    0      60     210     580     660    1320    1490    1680    1120     890     430      20   
000000400001970TAVG  240     120     320     680     560    1330    1600    1410    1150     870     410     140   
000000400001971TAVG  130     -90     340     590    1110    1130    1710    1430    1110     870     130     120   
000000400001972TAVG -150      30     190     490     640    1340    1410    1820    1480     840     330     -80   
000000400001973TAVG  -30     110     400     500    1000    1240    1400    1680    1570    1010     370     160   
000000400001974TAVG  -20    -170     720     920     970    1340    1390    1500    1150     840     140      90   
000000400001975TAVG   10    -110     280     270     670    1130    1420    1590    1280     690     500     -10   
000000400001976TAVG   60      50     280     430     780    1190    1470    1560    1330     790     520      40   
000000400001977TAVG  280     -10      60     440     860    1450    1490    1520    1280     700     510     260   
000000400001978TAVG -130    -270      80     390     760    1180    1630    1430    1340     800     350     290   
000000400001979TAVG   60     110     150     600     850    1140    1530    1640    1440     900     310     -20   
000000400001980TAVG  110    -130     330     350     850    1360    1560    1540    1200     890     540    -130   
000000400001981TAVG   30      70     210     540     860    1020    1610    1570    1330    1130     420     140   
000000400001982TAVG   50     150     320     540     970    1000    1530    1520    1140     750     490      50   
000000400001983TAVG   60     -30     340     420     780     630    1440    1470    1180     800     370     180   
000000400001984TAVG    0    -120     260     610     930    1130    1560    1580    1350     900     350     170   
000000400001985TAVG -180     100     340     450     900    1240    1490    1550    1150     740     270     310   
000000400001986TAVG  -10     120     290     280     630    1040    1470    1410    1150     660     310     -80   
000000400001987TAVG   10      90     540     100     740    1300    1350    1510     960     790     390      20   
000000400001988TAVG  -30    -100     340     360     740    1250    1400    1470    1330     890     180       0   
000000400001989TAVG   60      70     310     240     480    1440    1520    1460    1140     770     480      10   
000000400001990TAVG  -60     -80     300     460    1010    1270    1370    1480    1260     710     390      50   
000000400001991TAVG -130     -50    -140     330     720    1070    1500    1240    1520     620     200     230   
000000400001992TAVG -160      10     330     580    1010    1180    1430    1530    1250     760     180     -50   
000000400001993TAVG  120     -20      40     380     960    1110    1530    1440    1040     810     210      40   
000000400001994TAVG   30     -90     470     180     790    1090    1580    1410     830     690     240    -200   
000000400001995TAVG  -70     -80     180     370     590    1310    1550    1450    1070     760     210    -140   
000000400001996TAVG -140      30     320     510     640    1410    1390    1650    1080     900     420    -110   
000000400001997TAVG  -20    -220      10     540     760    1190    1410    1450    1340    1000     120     -60   
000000400001998TAVG  -40     -20     100     500     900    1120    1540    1350    1350     790     210     -80   
000000400001999TAVG -190    -180     -60     370     710    1000    1530    1500    1220     830     320    -120   
000000800001900TAVG-9999   -9999   -9999   -9999   -9999   -9999   -9999   -9999   -9999   -9999   -9999   -9999   
000000800001901TAVG-9999   -9999   -9999   -9999   -9999   -9999   -9999   -9999   -9999   -9999   -9999   -9999   
000000800001902TAVG-9999   -9999   -9999   -9999   -9999   -9999   -9999   -9999   -9999   -9999   -9999   -9999   
000000800001903TAVG-9999   -9999   -9999   -9999   -9999   -9999   -9999   -9999   -9999   -9999   -9999   -9999   
000000800001904TAVG-9999   -9999   -9999   -9999   -9999   -9999   -9999   -9999   -9999   -9999   -9999   -9999   
000000800001905TAVG-9999   -9999   -9999   -9999   -9999   -9999   -9999   -9999   -9999   -9999   -9999   -9999   
000000800001906TAVG-9999   -9999   -9999   -9999   -9999   -9999   -9999   -9999   -9999   -9999   -9999   -9999   
000000800001907TAVG-9999   -9999   -9999   -9999   -9999   -9999   -9999   -9999   -9999   -9999   -9999   -9999   
000000800001908TAVG-9999   -9999   -9999   -9999   -9999   -9999   -9999   -9999   -9999   -9999   -9999   -9999   
000000800001909TAVG-9999   -9999   -9999   -9999   -9999   -9999   -9999   -9999   -9999   -9999   -9999   -9999   
000000800001910TAVG-9999   -9999   -9999   -9999   -9999   -9999   -9999   -9999   -9999   -9999   -9999   -9999   
000000800001911TAVG-9999   -9999   -9999   -9999   -9999   -9999   -9999   -9999   -9999   -9999   -9999   -9999   
000000800001912TAVG-9999   -9999   -9999   -9999   -9999   -9999   -9999   -9999   -9999   -9999   -9999   -9999   
000000800001913TAVG  600     640     840     890    1280    1530    1930    1970    1560    1160     880     950   
000000800001914TAVG  300     340     920     900    1090    1750    1950    1980    1930    1120     540     860   
000000800001915TAVG  450     510     760     930    1390    1800    1890    2130    1760    1740     870     260   
000000800001916TAVG  550     530     890     860    1380    1610    1700    1820    1730    1510     810     680   
000000800001917TAVG  670     580     880     740    1380    1660    1950    2030    1940    1480    1150     610   
000000800001918TAVG  800     710     910    1120    1520    1770    2000    1970    1730    1540     990     680   
000000800001919TAVG  580     540     870     950    1200    1800    2090    2110    1690    1430     940     560   
000000800001920TAVG  540     660     800     870    1330    1770    1830    2060    1650    1280     920     560   
000000800001921TAVG  610     800     850    1030    1450    1700    1820    1940    1450    1560    1040     900   
000000800001922TAVG  700     570     630    1020    1190    1390    1990    1920    1990    1460     750     620   
000000800001923TAVG  560     490     800     980    1470    1760    1730    2070    1660    1410    1190     810   
000000800001924TAVG  580     550     910     830    1220    1450    2200    1950    1750    1380     820     740   
000000800001925TAVG  580     670     960     810    1150    1550    1870    1940    1860    1480    1170     670   
000000800001926TAVG  650     660     740    1140    1450    1540    1830    1950    1440    1350     940     720   
000000800001927TAVG  710     570     730     990    1160    1600    2070    2040    1940    1550     830     780   
000000800001928TAVG  490     780     760     990    1440    1630    1770    1800    1660    1490     990     970   
000000800001929TAVG  790     210     720    1100    1420    1700    1960    2110    1510    1430     970     810   
000000800001930TAVG  610     810     950    1080    1410    1790    1970    2030    1910    1240     970     660   
000000800001931TAVG  450     640     680    1100    1410    1480    2020    2040    1580    1190    1060     650   
000000800001932TAVG  640     690     780     640    1390    1610    1910    2020    1820    1380     810     630   
000000800001933TAVG  580     530     800    1150    1420    1450    1940    1650    1710    1490     700     750   
000000800001934TAVG  720     680     830     690    1180    1960    2070    2180    1630    1100     980     790   
000000800001935TAVG  520     710     740     920    1540    1590    2100    2030    1760    1730     960     280   
000000800001936TAVG  460     530     910    1110    1330    1990    2020    1860    1780    1560    1040     720   
000000800001937TAVG  650     480     670     910    1170    1660    1820    1800    1630    1300     850     580   
000000800001938TAVG  510     610     690    1130    1280    1510    2040    1910    1830    1260     970     850   
000000800001939TAVG  650     290     550    1060    1470    1720    1710    2010    1880    1330    1020     490   
000000800001940TAVG  500     410     820     830    1150    1540    1780    1920    1840    1290    1150     710   
000000800001941TAVG  720     670     860    1040    1190    1420    2020    1930    1730    1250    1030     490   
000000800001942TAVG-9999   -9999   -9999   -9999   -9999   -9999   -9999   -9999   -9999   -9999   -9999   -9999   
000000800001943TAVG-9999   -9999   -9999   -9999   -9999   -9999   -9999   -9999   -9999   -9999   -9999   -9999   
000000800001944TAVG-9999   -9999   -9999   -9999   -9999   -9999   -9999   -9999   -9999   -9999   -9999   -9999   
000000800001945TAVG-9999   -9999   -9999   -9999   -9999   -9999   -9999   -9999   -9999   -9999   -9999   -9999   
000000800001946TAVG  550     530     900    1060    1290    1300    1800    1850    1580    1530     910     490   
000000800001947TAVG  390     470     560    1140    1250    1780    1790    1870    1590    1410     950     500   
000000800001948TAVG  400     420     830    1120    1420    1470    2060    1950    1450    1470     900     680   
000000800001949TAVG  640     580     820    1090    1240    1540    1840    1850    1920    1390    1040     630   
000000800001950TAVG  560     680     810    1130    1400    1590    1710    1870    1690    1490     670     670   
000000800001951TAVG  750     580     920     830    1080    1530    2100    2080    1780    1460     960     560   
000000800001952TAVG  570     610     820    1000    1200    1700    1810    2040    1840    1420    1030     810   
000000800001953TAVG  470     550     790     830    1100    1530    1950    2010    1560    1390     770     430   
000000800001954TAVG  500     380     580     840    1090    1650    2020    2070    1970    1350     830     530   
000000800001955TAVG  660     690     810     940    1280    1790    1910    2060    1850    1340     960     720   
000000800001956TAVG  580     530     810     800    1160    1520    1710    1930    1780    1380    1040     730   
000000800001957TAVG  570     500     710     990    1140    1680    1740    2030    1680    1640    1270     640   
000000800001958TAVG  760     430     800     860    1260    1650    1840    1780    1700    1360     990     490   
000000800001959TAVG  570     380     650    1010    1370    1710    1920    2100    1910    1490    1120     530   
000000800001960TAVG  610     710     810    1030    1320    1790    1670    1930    1830    1260     920     630   
000000800001961TAVG  450     460     710     790    1270    1560    2000    1880    1820    1460    1050     480   
000000800001962TAVG  760     850     820     950    1220    1650    2000    2060    1750    1140     930     510   
000000800001963TAVG  660     560    1150    1170    1400    1600    1970    1790    1810    1370    1010     790   
000000800001964TAVG  560     650     810     830    1130    1510    1960    2090    1770    1400     950     690   
000000800001965TAVG  440     300    1090    1130    1230    1570    1790    2150    1560    1220     870     450   
000000800001966TAVG  470     620     880     940    1360    1750    1760    1930    1580    1170    1090     600   
000000800001967TAVG  600     440     840    1100    1320    1660    1860    1960    1570    1340     840     440   
000000800001968TAVG  870     640     700    1040    1580    1760    1880    1870    1640    1510     930     620   
000000800001969TAVG  540     610     720    1010    1050    1670    2020    2080    1630    1270    1020     550   
000000800001970TAVG  700     580     740    1080    1090    1760    2020    1780    1570    1310     910     700   
000000800001971TAVG  670     760     820    1140    1480    1680    2090    1840    1630    1360     730     580   
000000800001972TAVG  330     590     800     940    1110    1710    1940    2190    1840    1410     720     490   
000000800001973TAVG  470     650     840     950    1300    1680    1870    2220    2010    1530     880     630   
000000800001974TAVG  530     410    1070    1270    1370    1730    1870    1970    1670    1400     840     670   
000000800001975TAVG  670     460     890     840    1090    1620    1710    2010    1850    1270    1080     470   
000000800001976TAVG  650     560     820     910    1240    1680    1980    1880    1710    1280     990     710   
000000800001977TAVG  730     540     630     870    1260    1840    1850    1960    1770    1180    1120     720   
000000800001978TAVG  530     380     540     830    1140    1440    1930    1780    1770    1200     980     720   
000000800001979TAVG  580     660     640    1040    1340    1450    2010    1980    1820    1400     940     500   
000000800001980TAVG  640     430     790     890    1270    1700    1900    2030    1760    1400     920     450   
000000800001981TAVG  660     650     640     900    1290    1310    1930    1900    1890    1580     990     750   
000000800001982TAVG  530     660     710    1010    1280    1400    1970    1920    1610    1210    1030     660   
000000800001983TAVG  620     540     730     850    1240    1170    1860    1900    1560    1310     870     740   
000000800001984TAVG  420     620     630    1040    1260    1610    1920    1950    1820    1340     930     600   
000000800001985TAVG  460     670     960     840    1290    1680    2000    1970    1570    1220     830     880   
000000800001986TAVG  600     700     750     740    1060    1580    1820    1870    1600    1190     760     430   
000000800001987TAVG  530     670     980     620    1050    1660    1680    1940    1300    1300     830     640   
000000800001988TAVG  480     500     740    1010    1230    1630    1860    1950    1680    1360     650     560   
000000800001989TAVG  520     600     820     760     900    1800    1860    1900    1580    1310    1030     540   
000000800001990TAVG  550     480     720     980    1300    1670    1830    1880    1750    1280     920     680   
000000800001991TAVG  440     570     340     790    1170    1610    1840    1660    1930    1010     870     870   
000000800001992TAVG  340     540     780     930    1350    1540    1820    1940    1660    1110     760     590   
000000800001993TAVG  640     660     610     850    1400    1480    1990    1810    1500    1330     760     620   
000000800001994TAVG  490     490     800     650    1040    1310    2000    1810    1360    1240     740     310   
000000800001995TAVG  440     540     640     890    1130    1580    1900    1940    1590    1300     680     510   
000000800001996TAVG  350     620     780     880    1020    1650    1870    2080    1490    1320     830     350   
000000800001997TAVG  510     370     470    1030    1230    1750    1860    1740    1710    1440     610     530   
000000800001998TAVG  440     510     530     750    1270    1520    1990    1700    1830    1230     860     470   
000000800001999TAVG  360     380     390     870    1120    1440    1880    1760    1730    1260     880     470   
000001200001900TAVG-9999   -9999   -9999   -9999   -9999   -9999   -9999   -9999   -9999   -9999   -9999   -9999   
000001200001901TAVG-9999   -9999   -9999   -9999   -9999   -9999   -9999   -9999   -9999   -9999   -9999   -9999   
000001200001902TAVG-9999   -9999   -9999   -9999   -9999   -9999   -9999   -9999   -9999   -9999   -9999   -9999   
000001200001903TAVG-9999   -9999   -9999   -9999   -9999   -9999   -9999   -9999   -9999   -9999   -9999   -9999   
000001200001904TAVG-9999   -9999   -9999   -9999   -9999   -9999   -9999   -9999   -9999   -9999   -9999   -9999   
000001200001905TAVG  120     330     290     540    1170    1290    1730    1750    1170    1000     390     310   
000001200001906TAVG -130     170     590     660    1020    1420    1620    1770    1460    1160     690      40   
000001200001907TAVG  190     180     320     290    1260    1530    1730    1750    1380    1060     430     360   
000001200001908TAVG  130     -30     390     480    1030    1260    1380    1790    1200     890     560     250   
000001200001909TAVG  310     120     560     560    1070    1640    1510    1620    1790    1020     620     230   
000001200001910TAVG  160      90     340     590    1280    1410    1730    1700    1310     970     230     320   
000001200001911TAVG  150     200     400     850    1120    1590    1760    1650    1530     980     420     110   
000001200001912TAVG  180      50     510     620    1090    1480    1700    1930    1750    1080     570     370   
000001200001913TAVG  -30     260     520     710    1030    1300    1650    1720    1210     850     380     450   
000001200001914TAVG  -20    -140     580     670     900    1570    1730    1670    1530     740     -10     290   
000001200001915TAVG -100     170     550     780    1370    1600    1850    1890    1550    1350     560    -110   
000001200001916TAVG   60      80     530     680    1070    1560    1480    1510    1450    1160     550     280   
000001200001917TAVG  310     200     630     580    1120    1430    1670    1810    1540    1190     800     -20   
000001200001918TAVG  290     230     590     880    1270    1570    1870    1760    1410    1210     540     200   
000001200001919TAVG   50      60     430     920     950    1570    1800    1950    1450     900     330      60   
000001200001920TAVG  200     240     340     630    1080    1520    1610    1670    1370     930     450      80   
000001200001921TAVG   90     390     520     720    1210    1340    1670    1780    1080    1220     570     380   
000001200001922TAVG  210     140     470     870     950    1150    1750    1780    1660    1180     450     150   
000001200001923TAVG  170      20     460     800    1310    1530    1620    1940    1530    1050     750     340   
000001200001924TAVG  140     100     470     780    1060    1300    1930    1770    1350     950     410     200   
000001200001925TAVG  180     250     560     690     990    1200    1780    1730    1620    1140     730     140   
000001200001926TAVG  140     200     460     790    1290    1410    1610    1660    1200     940     500     220   
000001200001927TAVG  190     130     280     860    1000    1400    1880    1780    1700    1100     390     290   
000001200001928TAVG   60     390     400     910    1330    1390    1590    1440    1370    1210     570     490   
000001200001929TAVG  280    -130     470     950    1210    1470    1760    1890    1090    1100     530     380   
000001200001930TAVG  170     210     690     890    1300    1420    1760    1760    1710     950     500      80   
000001200001931TAVG   60     130     310     660    1130    1380    1720    1840    1430     870     560     230   
000001200001932TAVG  240     140     400     440    1120    1470    1650    1830    1570    1030     340     190   
000001200001933TAVG   50      80     460     870    1270    1350    1790    1390    1360    1150     240     260   
000001200001934TAVG  280     320     500     630    1120    1710    1780    1940    1290     850     390     360   
000001200001935TAVG   60     220     470     790    1300    1360    1890    1770    1460    1220     380     -50   
000001200001936TAVG   10      90     620     750    1170    1890    1820    1630    1570    1170     630     180   
000001200001937TAVG  120     230     280     720    1080    1520    1500    1560    1370     770     330     170   
000001200001938TAVG    0     290     450     860    1060    1340    1850    1710    1660     930     490     320   
000001200001939TAVG  290    -150      70     780    1060    1460    1460    1850    1550     990     640       0   
000001200001940TAVG   20     170     590     550    1000    1350    1580    1610    1440     900     540     270   
000001200001941TAVG  140     160     610     680     920    1210    1700    1720    1360     980     530      20   
000001200001942TAVG  120     480     510     830    1030    1440    1770    1920    1510     900     280      40   
000001200001943TAVG  -50     130     340     680    1250    1340    1690    1600    1560    1180     770     320   
000001200001944TAVG  300     180     360    1000     970    1400    2040    1760    1520     830     470     140   
000001200001945TAVG   50     420     300     440     970    1480    1530    1820    1240     860     380     210   
000001200001946TAVG  100     150     560     600    1090    1030    1660    1650    1280    1230     490      20   
000001200001947TAVG  -70       0     360     870     990    1610    1470    1800    1340     970     460      50   
000001200001948TAVG -180      40     530     860    1270    1370    1940    1710    1110    1070     520     170   
000001200001949TAVG  120     160     590     830    1050    1400    1570    1580    1530     970     440     300   
000001200001950TAVG  -30     150     380     890    1250    1530    1530    1610    1510    1040     250     260   
000001200001951TAVG  150     290     490     560     940    1500    1920    1870    1600    1050     540     160   
000001200001952TAVG  100     140     450     680     940    1570    1480    1750    1640    1210     500     390   
000001200001953TAVG   80     140     520     510     770    1400    1630    1700    1270     910     140      50   
000001200001954TAVG   70     -50     220     640     840    1530    1810    1810    1500     950     320      50   
000001200001955TAVG   60     210     320     640    1060    1610    1660    1850    1530     990     510     360   
000001200001956TAVG  150     150     510     630    1040    1330    1630    1660    1570    1130     620     360   
000001200001957TAVG  130      40     390     740     850    1460    1610    1780    1510    1110     690      40   
000001200001958TAVG  340      90     370     590    1080    1480    1690    1560    1350     920     500      10   
000001200001959TAVG   60     140     420     740    1230    1600    1780    1790    1640    1090     610      20   
000001200001960TAVG   90     220     430     740    1100    1710    1510    1660    1470     990     450      50   
000001200001961TAVG   60     100     420     520    1140    1400    1610    1600    1600    1000     460       0   
000001200001962TAVG  230     540     420     750    1120    1490    1730    1860    1460     710     460      10   
000001200001963TAVG   50      40     750     880    1160    1490    1640    1660    1620    1020     520     150   
000001200001964TAVG   90     180     460     560     870    1320    1800    1810    1400     960     560     370   
000001200001965TAVG  -60    -100     740     860     950    1330    1690    1760    1360     900     410      50   
000001200001966TAVG  -20     230     490     740    1150    1580    1560    1850    1310     710     610     160   
000001200001967TAVG   70     -10     400     960    1190    1680    1580    1770    1300     950     370      20   
000001200001968TAVG  360     100     390     880    1280    1640    1660    1710    1320     950     630      90   
000001200001969TAVG  100     290     290     790     900    1510    1740    1760    1200     950     570      60   
000001200001970TAVG  120     250     440     930     800    1620    1780    1570    1300     820     390     330   
000001200001971TAVG  130     320     580     860    1310    1490    1910    1740    1270     900     170     170   
000001200001972TAVG  -40     210     530     780     870    1580    1720    2020    1530    1090     330     -10   
000001200001973TAVG  130     220     580     570    1060    1480    1710    1910    1830    1140     450     240   
000001200001974TAVG  190    -190     850    1120    1060    1600    1720    1700    1220     890     440     230   
000001200001975TAVG  130      40     500     700    1080    1500    1410    1850    1600     900     380      60   
000001200001976TAVG  220     210     580     730    1000    1460    1700    1860    1380     990     700     140   
000001200001977TAVG  260     120     260     670     940    1610    1630    1730    1430     820     650     400   
000001200001978TAVG   20      50     180     670     950    1250    1760    1660    1390     810     380     200   
000001200001979TAVG   60     150     270     800    1090    1350    1720    1730    1600    1040     390      60   
000001200001980TAVG  190      30     490     540    1070    1590    1790    1750    1410    1020     510     -80   
000001200001981TAVG  260     110     270     640    1010    1270    1640    1590    1670    1120     530     260   
000001200001982TAVG  100     240     560     770    1090    1290    1740    1760    1430     700     540     140   
000001200001983TAVG  200     360     250     620    1090    1010    1590    1680    1340     980     540     370   
000001200001984TAVG   70     130     300     730    1100    1400    1700    1700    1420     900     530     250   
000001200001985TAVG    0     370     650     540    1090    1350    1750    1840    1330     850     360     290   
000001200001986TAVG  190     210     570     630     980    1400    1520    1710    1350     790     300      20   
000001200001987TAVG   10     360     620     380    1050    1490    1560    1720    1150     880     240     130   
000001200001988TAVG   10     130     380     730    1030    1370    1650    1570    1220    1080     280     150   
000001200001989TAVG  130     170     310     600     700    1560    1670    1670    1330     850     600     150   
000001200001990TAVG   30      70     330     540    1250    1530    1550    1620    1420     840     510      80   
000001200001991TAVG  -80     150      30     560     930    1350    1690    1440    1540     780     340     400   
000001200001992TAVG -160     190     520     650    1180    1360    1460    1680    1290     700     390     200   
000001200001993TAVG   60      90     300     580    1140    1190    1670    1600    1180     980     290     180   
000001200001994TAVG  -10      20     270     460     900    1070    1820    1550    1220     780     260     -80   
000001200001995TAVG  160      50     360     600    1120    1490    1640    1720    1220     880     220      80   
000001200001996TAVG -180     150     470     620     800    1600    1590    1980    1280     790     250     -20   
000001200001997TAVG  -20     -10     220     860    1070    1430    1680    1610    1390    1190      90      90   
000001200001998TAVG -220     230     200     650    1160    1450    1770    1480    1550     850     420     -60   
000001200001999TAVG -210      20     -10     570     750    1330    1570    1630    1500     870     420     -10   
000003010001900TAVG-9999   -9999   -9999   -9999   -9999   -9999   -9999   -9999   -9999   -9999   -9999   -9999   
000003010001901TAVG-9999   -9999   -9999   -9999   -9999   -9999   -9999   -9999   -9999   -9999   -9999   -9999   
000003010001902TAVG-9999   -9999   -9999   -9999   -9999   -9999   -9999   -9999   -9999   -9999   -9999   -9999   
000003010001903TAVG -230    -140     100     220     540    1030    1030    1290    1030     490     280     150   
000003010001904TAVG   50    -150     -50     320     700     640    1350    1110    1070     930     120      10   
000003010001905TAVG -240      20      30     200     530     830    1190    1220     650     730      30     130   
000003010001906TAVG -340      40     150     300     590     960    1010    1080    1060     720     360     -80   
000003010001907TAVG -170    -220     100     -60     740    1090    1320    1180     950     670      30     -80   
000003010001908TAVG -130    -220      40     200     680     940     940    1150     910     530     260     -10   
000003010001909TAVG  130    -180     380     120     600    1080    1090    1260    1170     550     170     -30   
000003010001910TAVG -180    -290      90     230     790     980    1190    1330     710     700      80      60   
000003010001911TAVG  -80     -70      20     370     740    1070    1190    1140    1020     570      80     -80   
000003010001912TAVG -140    -250     230     280     880     910    1160    1400    1150     630     460     100   
000003010001913TAVG -260    -100     170     320     670     850    1240    1210     670     460     120     180   
000003010001914TAVG -330    -330     230     260     460    1200    1290    1200    1190     440    -150     140   
000003010001915TAVG -250    -210      10     310     760    1190    1230    1420     900     870     180    -360   
000003010001916TAVG  -60    -170      20     200     750     940    1000    1210     870     740      90     -40   
000003010001917TAVG   30     -80     230     180     750     880    1190    1260    1100     620     450      20   
000003010001918TAVG   30     -80     230     590     900    1070    1160    1290     940     830     340     -80   
000003010001919TAVG -230    -140     140     370     600    1080    1380    1260     940     680     -10    -160   
000003010001920TAVG  -50    -160      50     260     600    1050    1180    1230     880     520     170     -40   
000003010001921TAVG -130      80     220     480     680    1090    1080    1220     720     710     290     100   
000003010001922TAVG  -80    -210     120     460     540     720    1330    1130    1120     720       0    -200   
000003010001923TAVG -200    -100     190     290     730    1190    1020    1290     950     720     540     110   
000003010001924TAVG -120     -70     240     200     600     920    1460    1210     980     510     110      20   
000003010001925TAVG  -70      50     240     260     500     770    1120    1140    1070     740     320     -20   
000003010001926TAVG  -50    -100     280     430    1000     890    1060    1150     630     650     200      20   
000003010001927TAVG  -40    -170      10     390     500     750    1350    1230    1200     660      90       0   
000003010001928TAVG -200     130     180     240     940    1060    1030    1040     900     690     200     310   
000003010001929TAVG  -20    -380     120     570     840     940    1220    1290     720     620     270      80   
000003010001930TAVG -100     140     240     430     730    1070    1340    1290    1010     470     250       0   
000003010001931TAVG -380    -200      40     450     630     890    1320    1360     820     390     390    -180   
000003010001932TAVG  -80      40      90     -30     810    1020    1100    1300    1000     610     100       0   
000003010001933TAVG -190    -180      90     440     820     810    1240    1010     940     660      40     120   
000003010001934TAVG  -50     -70     160     150     670    1220    1370    1360     850     380     260     130   
000003010001935TAVG -310      10      10     290     740     930    1370    1320     920     850     260    -320   
000003010001936TAVG -300    -150     230     350     660    1340    1280    1130    1070     730     260      90   
000003010001937TAVG -120    -190      80     380     550     950    1110    1040     910     500     110     -30   
000003010001938TAVG -130     -10     120     520     510     880    1210    1180    1060     510     100     100   
000003010001939TAVG -170    -360    -220     290     670     970    1050    1260    1100     510     330    -210   
000003010001940TAVG -170    -270     100     280     540     830    1100    1170     900     600     350     -60   
000003010001941TAVG    0    -130     240     460     520     840    1260    1050    1010     630     330    -120   
000003010001942TAVG  -30     170      50     520     630    1060    1280    1350     950     440     160    -170   
000003010001943TAVG -300    -280    -180     180     820     850    1150    1080     980     800     340     110   
000003010001944TAVG   10     -90     180     650     530    1090    1510    1280     950     510     100    -100   
000003010001945TAVG -340     -30     -70      70     540    1040    1150    1250     800     430     250      40   
000003010001946TAVG -160     -60     190     410     700     610    1140    1030     840     740     180    -300   
000003010001947TAVG -290    -250     -60     470     500    1220    1090    1120     880     540     160    -150   
000003010001948TAVG -350    -240      80     370     730     900    1380    1270     720     750      50    -140   
000003010001949TAVG -130    -240     140     410     620     830    1190    1070    1140     720     240     -40   
000003010001950TAVG -150      80      30     590     770     930     970    1170     880     710     -30    -130   
000003010001951TAVG  -60    -160     260     180     480     920    1280    1320     930     650     340    -120   
000003010001952TAVG -180     -80     240     460     460    1060    1070    1390    1060     660     290      70   
000003010001953TAVG -240     -80     210     200     500     950    1350    1250     910     660     -40    -260   
000003010001954TAVG -140    -260     -10     260     410    1060    1260    1330    1090     530      10    -160   
000003010001955TAVG -110      10     150     370     680    1100    1120    1280     940     500     200     100   
000003010001956TAVG   50    -140     190     100     550     830    1050    1120    1000     610     430     -70   
000003010001957TAVG -200    -250      20     340     440     970    1050    1270     900     830     400    -100   
000003010001958TAVG   20    -300     160     260     650     950    1210    1080     910     630     220    -120   
000003010001959TAVG -130    -260     160     470     700    1100    1200    1220    1090     720     390      30   
000003010001960TAVG -230      30     140     410     680    1120    1000    1120     980     600     120     -70   
000003010001961TAVG -280    -150      10     130     640     920    1230    1130    1040     650     330    -260   
000003010001962TAVG   30     170     150     390     600    1050    1170    1270     970     280     150    -190   
000003010001963TAVG -160    -180     420     540     610    1030    1170    1000    1170     570     190     -30   
000003010001964TAVG -160    -120     120     130     510     870    1360    1350     860     580     290      40   
000003010001965TAVG -190    -420     440     460     590     960    1080    1260     820     510     120    -280   
000003010001966TAVG -250     -40     180     330     660    1120    1030    1290     890     410     280     -20   
000003010001967TAVG   10    -250      40     540     790    1130    1070    1260     700     610      40    -150   
000003010001968TAVG   80     -20     -30     340     960    1170    1040    1190     770     690     260     -30   
000003010001969TAVG -200     -90      30     390     470     880    1290    1300     770     480     270    -180   
000003010001970TAVG  -60    -100     -70     370     330    1100    1290    1080     770     540     220      90   
000003010001971TAVG  -90      60     100     340     770     960    1330    1120    1010     570      30    -100   
000003010001972TAVG -300    -160      10     270     550     980    1200    1420    1220     420     -80    -310   
000003010001973TAVG -290      20     220     380     630    1070    1200    1360    1210     710      80       0   
000003010001974TAVG -180    -310     460     670     760    1020    1170    1190     810     530     210     -40   
000003010001975TAVG   20    -110     170     260     510     930    1010    1240     970     570     200    -120   
000003010001976TAVG -110    -160      80     250     470     930    1320    1270     880     620     310     -10   
000003010001977TAVG    0    -210    -100     340     510    1190    1120    1290    1090     420     350     130   
000003010001978TAVG -290    -160    -110     110     480     840    1110    1020     930     490     230     -10   
000003010001979TAVG -160    -150     -50     540     690     870    1130    1240    1060     560      60    -100   
000003010001980TAVG -100    -290     180     330     630    1110    1160    1230    1040     740     230    -200   
000003010001981TAVG  -70     -40     -30     350     570     660    1130    1200    1130     890     310     -80   
000003010001982TAVG -190    -110      40     340     600     770    1230    1180     820     430     300     -70   
000003010001983TAVG -130    -160      20     300     460     470    1190    1180     860     550     130     180   
000003010001984TAVG -170    -160     -40     420     650     930    1220    1190    1130     670     220     -60   
000003010001985TAVG -290       0     310     220     640     840    1170    1120     950     490     120      40   
000003010001986TAVG -190     -70     100     120     530     780    1100    1120     890     550      10    -130   
000003010001987TAVG -220     -10     230      30     550    1020     950    1180     480     480     120    -180   
000003010001988TAVG -120    -160      60     390     520     900    1160    1120     950     600     -40     -50   
000003010001989TAVG -160    -220      40     140     340    1170    1160    1100     730     380     300    -200   
000003010001990TAVG -160    -220     -90     290     710     970    1080    1130     880     490     170     -50   
000003010001991TAVG -300    -220    -360     160     570     900    1030     830    1110     420     110     110   
000003010001992TAVG -190     -50      70     270     800     880    1180    1120     840     350     -90    -170   
000003010001993TAVG    0    -140    -100     200     750     760    1160    1050     870     500     -50     -40   
000003010001994TAVG -260    -220      40       0     540     630    1270    1120     630     390    -110    -430   
000003010001995TAVG -200    -110      10     230     590    1020    1290    1220     830     450      50    -210   
000003010001996TAVG -380     -70     -10     210     450     950    1220    1300     830     520      90    -230   
000003010001997TAVG -260    -270    -170     330     710    1090    1140    1010     860     720     -60    -270   
000003010001998TAVG -310    -170    -130     230     680     920    1290     930    1040     510     -50    -350   
000003010001999TAVG -400    -220    -340     230     490     760    1090    1020     940     520      70    -350   
000003030001900TAVG-9999   -9999   -9999   -9999   -9999   -9999   -9999   -9999   -9999   -9999   -9999   -9999   
000003030001901TAVG-9999   -9999   -9999   -9999   -9999   -9999   -9999   -9999   -9999   -9999   -9999   -9999   
000003030001902TAVG-9999   -9999   -9999   -9999   -9999   -9999   -9999   -9999   -9999   -9999   -9999   -9999   
000003030001903TAVG-9999   -9999   -9999   -9999   -9999   -9999   -9999   -9999   -9999   -9999   -9999   -9999   
000003030001904TAVG-9999   -9999   -9999   -9999   -9999   -9999   -9999   -9999   -9999   -9999   -9999   -9999   
000003030001905TAVG-9999   -9999   -9999   -9999   -9999   -9999   -9999   -9999   -9999   -9999   -9999   -9999   
000003030001906TAVG-9999   -9999   -9999   -9999   -9999   -9999   -9999   -9999   -9999   -9999   -9999   -9999   
000003030001907TAVG-9999   -9999   -9999   -9999   -9999   -9999   -9999   -9999   -9999   -9999   -9999   -9999   
000003030001908TAVG-9999   -9999   -9999   -9999   -9999   -9999   -9999   -9999   -9999   -9999   -9999   -9999   
000003030001909TAVG-9999   -9999   -9999   -9999   -9999   -9999   -9999   -9999   -9999   -9999   -9999   -9999   
000003030001910TAVG-9999   -9999   -9999   -9999   -9999   -9999   -9999   -9999   -9999   -9999   -9999   -9999   
000003030001911TAVG-9999   -9999   -9999   -9999   -9999   -9999   -9999   -9999   -9999   -9999   -9999   -9999   
000003030001912TAVG-9999   -9999   -9999   -9999   -9999   -9999   -9999   -9999   -9999   -9999   -9999   -9999   
000003030001913TAVG-9999   -9999   -9999   -9999   -9999   -9999   -9999   -9999   -9999   -9999   -9999   -9999   
000003030001914TAVG-9999   -9999   -9999   -9999   -9999   -9999   -9999   -9999   -9999   -9999   -9999   -9999   
000003030001915TAVG -740    -650    -350    -130     310     690     700     960     460     420    -170    -730   
000003030001916TAVG -420    -540    -360    -260     320     500     550     660     390     360    -210    -480   
000003030001917TAVG -360    -520    -160    -220     390     340     660     810     740     170      10    -490   
000003030001918TAVG -380    -530    -230      80     500     670     730     810     540     340    -120    -500   
000003030001919TAVG -680    -560    -240    -130     200     620     820     740     480     290    -390    -600   
000003030001920TAVG -500    -570    -280     -60     190     600     640     660     410      70    -180    -420   
000003030001921TAVG -490    -320    -180      80     280     560     640     750     210     230     -40    -190   
000003030001922TAVG -390    -590    -420      80     210     250     850     630     780     320    -310    -580   
000003030001923TAVG -670    -430    -220     -50     340     650     530     770     440     290     170    -370   
000003030001924TAVG -560    -470    -190    -200     280     420     970     780     440      20    -250    -410   
000003030001925TAVG -480    -390    -150     -60      50     370     690     670     530     240    -140    -440   
000003030001926TAVG -470    -420    -170     120     560     320     650     640     160     290    -280    -440   
000003030001927TAVG -510    -570    -560     -20     110     410     880     830     710     310    -270    -410   
000003030001928TAVG -600    -450    -340    -150     590     490     570     740     500     260    -130    -170   
000003030001929TAVG -410    -870    -350     160     370     450     700     760     260      70    -190    -330   
000003030001930TAVG -520    -230    -110      20     250     690     790     880     560     -80    -200    -310   
000003030001931TAVG -690    -600    -360     -40     280     510     850     890     390      30      80    -590   
000003030001932TAVG -640    -330    -310    -570     470     530     690     780     600     170    -290    -310   
000003030001933TAVG -560    -650    -240      30     390     410     670     480     550     100    -480    -340   
000003030001934TAVG -520    -480    -250    -310     140     780     860     970     440     -30     -30    -250   
000003030001935TAVG -660    -430    -420    -160     230     450     880     800     490     420     -90    -680   
000003030001936TAVG -690    -640    -200     -60     240     770     820     610     630     220    -150    -300   
000003030001937TAVG -490    -670    -410     -30     150     600     590     570     360     100    -310    -490   
000003030001938TAVG -520    -500    -330     100     210     460     810     630     530     120    -340    -320   
000003030001939TAVG -540    -740    -670    -180     150     520     540     740     680     160      20    -670   
000003030001940TAVG -600    -670    -390    -160     170     270     770     620     450     140      80    -470   
000003030001941TAVG -470    -400    -220      50     160     320     810     510     650     120    -110    -450   
000003030001942TAVG -450    -400    -390      40     160     590     840     910     560      30    -200    -560   
000003030001943TAVG -760    -640    -590    -130     310     360     630     720     490     390     -50    -290   
000003030001944TAVG-9999   -9999   -9999   -9999   -9999   -9999   -9999   -9999   -9999   -9999   -9999   -9999   
000003030001945TAVG-9999   -9999   -9999   -9999   -9999   -9999   -9999   -9999   -9999   -9999   -9999   -9999   
000003030001946TAVG -610    -500    -200      20     300     160     650     590     430     310    -250    -730   
000003030001947TAVG -580    -700    -510      90     130     730     630     630     370     150    -200    -520   
000003030001948TAVG -740    -700    -380     -30     390     300     950     720     250     260    -200    -470   
000003030001949TAVG -530    -700    -310     -60     180     460     720     560     650     300     -90    -390   
000003030001950TAVG -640    -360    -370     100     370     460     500     660     380     260    -380    -420   
000003030001951TAVG -310    -660    -190    -220      20     430     840     780     510     120       0    -500   
000003030001952TAVG -710    -440    -190       0     110     610     580     910     600     300      10    -380   
000003030001953TAVG -700    -440    -250    -230     110     450     850     760     530     210    -460    -610   
000003030001954TAVG -540    -660    -440     -90     -30     590     750     850     660     210    -220    -490   
000003030001955TAVG -500    -390    -420       0     290     590     590     850     450     100    -290    -230   
000003030001956TAVG -280    -460    -300    -340     230     420     610     580     460     130      10    -470   
000003030001957TAVG -620    -650    -470    -110       0     540     680     750     440     390     -10    -370   
000003030001958TAVG -420    -700    -300    -180     340     540     750     580     450     200    -190    -480   
000003030001959TAVG -480    -840    -200      20     280     520     680     830     570     350      50    -420   
000003030001960TAVG -550    -390    -310    -150     290     560     550     630     500     170    -310    -460   
000003030001961TAVG -790    -560    -440    -260     240     470     770     690     560     250     -90    -650   
000003030001962TAVG -360    -230    -140     -20     100     620     760     740     500     -50    -300    -540   
000003030001963TAVG -540    -600     -40     100     220     510     750     480     770     170    -190    -430   
000003030001964TAVG -450    -570    -380    -210      60     370     750     890     430     160    -120    -370   
000003030001965TAVG -690    -850     110     -50     110     480     700     770     380     170    -290    -650   
000003030001966TAVG -700    -500    -140     -70     220     640     590     850     400     -40     -20    -390   
000003030001967TAVG -470    -690    -350      70     400     690     470     800     170     290    -250    -480   
000003030001968TAVG -260    -480    -440     -10     550     620     530     690     350     260     -60    -370   
000003030001969TAVG -640    -610    -310     -40      10     480     870     780     290      90    -160    -690   
000003030001970TAVG -400    -430    -520    -120     -20     670     800     570     420     130    -210    -340   
000003030001971TAVG -470    -540    -350     -20     340     400     780     590     510     200    -480    -470   
000003030001972TAVG -690    -630    -460    -140     140     520     560     970     850      20    -430    -720   
000003030001973TAVG -720    -430    -200     -30     270     620     720     900     730     310    -290    -370   
000003030001974TAVG -580    -680      70     270     330     510     680     810     300      90    -300    -410   
000003030001975TAVG -400    -520    -280    -320     100     340     590     750     540     130    -150    -420   
000003030001976TAVG -490    -510    -320    -140     190     450     870     860     480     130     -40    -460   
000003030001977TAVG -390    -660    -520     -70     150     730     740     750     670     -30       0    -380   
000003030001978TAVG -720    -580    -520    -360     150     370     610     570     470      80    -180    -370   
000003030001979TAVG -520    -570    -480      10     230     390     580     730     670     260    -300    -490   
000003030001980TAVG -450    -760    -290    -190     140     530     620     690     560     300    -190    -560   
000003030001981TAVG -420    -420    -470     -80     120     240     610     900     610     560     -90    -490   
000003030001982TAVG -490    -540    -320       0     140     320     800     760     380      20    -110    -450   
000003030001983TAVG -510    -640    -380    -140      90    -150     670     730     390     190    -320    -100   
000003030001984TAVG -620    -660    -380     -10     270     480     770     680     650     290    -160    -480   
000003030001985TAVG -720    -390    -130    -190     250     410     650     690     570       0    -270    -350   
000003030001986TAVG -550    -520    -340    -290     150     280     610     590     460     120    -380    -500   
000003030001987TAVG -630    -480    -140    -480     150     600     510     610     160      90    -240    -640   
000003030001988TAVG -500    -630    -350     -90     100     410     650     620     560     180    -420    -480   
000003030001989TAVG -650    -660    -360    -300    -100     690     690     620     370     -50     -30    -590   
000003030001990TAVG -600    -720    -510     -90     340     530     530     530     380      40    -180    -410   
000003030001991TAVG -690    -690    -790    -260     210     430     620     340     650      70    -310    -320   
000003030001992TAVG -570    -530    -330    -170     320     440     760     640     350      40    -540    -550   
000003030001993TAVG -360    -580    -590    -280     330     340     530     630     410     120    -490    -460   
000003030001994TAVG -620    -640    -380    -470     170     210     750     650     120     -60    -410    -760   
000003030001995TAVG -680    -520    -450    -120     210     570     840     750     440     -20    -400    -500   
000003030001996TAVG -710    -500    -480    -200      10     470     690     730     280      80    -220    -550   
000003030001997TAVG -540    -710    -550     -30     190     590     650     610     460     410    -360    -700   
000003030001998TAVG -680    -580    -500    -220     340     490     750     490     520      90    -530    -690   
000003030001999TAVG -830    -700    -740    -250      10     220     550     580     480    -100    -270    -770   
000003240001900TAVG-9999   -9999   -9999   -9999   -9999   -9999   -9999   -9999   -9999   -9999   -9999   -9999   
000003240001901TAVG-9999   -9999   -9999   -9999   -9999   -9999   -9999   -9999   -9999   -9999   -9999   -9999   
000003240001902TAVG-9999   -9999   -9999   -9999   -9999   -9999   -9999   -9999   -9999   -9999   -9999   -9999   
000003240001903TAVG-9999   -9999   -9999   -9999   -9999   -9999   -9999   -9999   -9999   -9999   -9999   -9999   
000003240001904TAVG-9999   -9999   -9999   -9999   -9999   -9999   -9999   -9999   -9999   -9999   -9999   -9999   
000003240001905TAVG-9999   -9999   -9999   -9999   -9999   -9999   -9999   -9999   -9999   -9999   -9999   -9999   
000003240001906TAVG-9999   -9999   -9999   -9999   -9999   -9999   -9999   -9999   -9999   -9999   -9999   -9999   
000003240001907TAVG-9999   -9999   -9999   -9999   -9999   -9999   -9999   -9999   -9999   -9999   -9999   -9999   
000003240001908TAVG-9999   -9999   -9999   -9999   -9999   -9999   -9999   -9999   -9999   -9999   -9999   -9999   
000003240001909TAVG-9999   -9999   -9999   -9999   -9999   -9999   -9999   -9999   -9999   -9999   -9999   -9999   
000003240001910TAVG-9999   -9999   -9999   -9999   -9999   -9999   -9999   -9999   -9999   -9999   -9999   -9999   
000003240001911TAVG-9999   -9999   -9999   -9999   -9999   -9999   -9999   -9999   -9999   -9999   -9999   -9999   
000003240001912TAVG-9999   -9999   -9999   -9999   -9999   -9999   -9999   -9999   -9999   -9999   -9999   -9999   
000003240001913TAVG-9999   -9999   -9999   -9999   -9999   -9999   -9999   -9999   -9999   -9999   -9999   -9999   
000003240001914TAVG-9999   -9999   -9999   -9999   -9999   -9999   -9999   -9999   -9999   -9999   -9999   -9999   
000003240001915TAVG-9999   -9999   -9999   -9999   -9999   -9999   -9999   -9999   -9999   -9999   -9999   -9999   
000003240001916TAVG-9999   -9999   -9999   -9999   -9999   -9999   -9999   -9999   -9999   -9999   -9999   -9999   
000003240001917TAVG  580     400     660     670    1250    1470    1780    1830    1620    1190     930     330   
000003240001918TAVG  380     330     780    1170    1460    1660    1840    1690    1460    1410     630     430   
000003240001919TAVG  290     340     620     950    1010    1770    1930    1830    1420    1150     610     320   
000003240001920TAVG  320     470     630     750    1320    1570    1660    1760    1330    1060     690     390   
000003240001921TAVG  350     570     710     900    1270    1400    1650    1750    1170    1250     670     680   
000003240001922TAVG  500     370     550     850    1270    1180    1680    1730    1680    1230     510     360   
000003240001923TAVG  390     320     490     800    1330    1580    1570    1780    1560    1290     910     540   
000003240001924TAVG  330     310     700     840    1060    1250    1930    1730    1460    1110     670     410   
000003240001925TAVG  310     410     700     840    1230    1370    1640    1660    1610    1190     820     400   
000003240001926TAVG  350     450     510    1020    1440    1330    1580    1740    1160    1090     720     640   
000003240001927TAVG  410     290     430     880    1130    1340    1750    1650    1650    1220     530     540   
000003240001928TAVG  340     430     740     940    1370    1520    1570    1460    1410    1340     690     710   
000003240001929TAVG  550      10     540    1030    1210    1540    1750    1790    1260    1160     710     570   
000003240001930TAVG  440     580     810     980    1280    1480    1720    1710    1720    1030     710     350   
000003240001931TAVG  260     280     600     870    1240    1400    1710    1830    1300    1020     750     420   
000003240001932TAVG  350     560     540     550    1270    1450    1640    1760    1510    1080     580     360   
000003240001933TAVG  290     300     580     990    1270    1310    1700    1500    1440    1190     500     490   
000003240001934TAVG  450     490     600     560     990    1700    1800    1860    1400     890     620     660   
000003240001935TAVG  390     600     550     840    1190    1440    1810    1820    1470    1340     750     200   
000003240001936TAVG  300     270     620    1050    1180    1780    1850    1600    1610    1240     810     520   
000003240001937TAVG  340     420     520     860    1180    1400    1560    1580    1340    1010     560     360   
000003240001938TAVG  310     320     650     970    1170    1350    1810    1660    1440    1070     570     620   
000003240001939TAVG  500     110     300     870    1310    1480    1530    1710    1500    1130     800     300   
000003240001940TAVG  270     300     650     730    1090    1410    1550    1710    1320    1050     870     470   
000003240001941TAVG  430     410     700     890    1120    1210    1670    1660    1410    1060     790     310   
000003240001942TAVG  430     640     530     880    1100    1490    1840    1870    1440     990     580     260   
000003240001943TAVG  160     270     440     760    1380    1390    1750    1620    1500    1370     890     490   
000003240001944TAVG-9999   -9999   -9999   -9999   -9999   -9999   -9999   -9999   -9999   -9999   -9999   -9999   
000003240001945TAVG-9999   -9999   -9999   -9999   -9999   -9999   -9999   -9999   -9999   -9999   -9999   -9999   
000003240001946TAVG  350     380     710     770    1210    1060    1540    1670    1280    1300     750     250   
000003240001947TAVG  240     210     470    1000    1220    1600    1580    1540    1340    1020     720     330   
000003240001948TAVG  160     250     630     960    1350    1400    1860    1770    1110    1290     630     340   
000003240001949TAVG  400     380     670     840    1120    1400    1670    1520    1500    1040     660     420   
000003240001950TAVG  220     500     480    1060    1220    1500    1520    1680    1530    1100     380     370   
000003240001951TAVG  450     390     710     720    1040    1340    1810    1710    1460    1220     780     330   
000003240001952TAVG  340     400     580     830     920    1500    1490    1880    1570    1170     710     610   
000003240001953TAVG  260     290     670     640     820    1410    1640    1720    1330    1170     400     360   
000003240001954TAVG  240     170     480     720     890    1580    1820    1840    1670    1070     620     240   
000003240001955TAVG  340     410     520     850    1110    1590    1660    1830    1600    1230     620     520   
000003240001956TAVG  440     280     600     680    1110    1380    1560    1670    1450    1200     860     470   
000003240001957TAVG  450     280     460     940    1100    1470    1650    1710    1380    1340     950     400   
000003240001958TAVG  470     310     580     750    1090    1480    1620    1560    1350    1140     810     290   
000003240001959TAVG  230     230     610     850    1200    1500    1720    1760    1500    1260     920     290   
000003240001960TAVG  390     340     650     820    1150    1610    1550    1580    1510    1180     600     370   
000003240001961TAVG  270     220     520     610    1200    1380    1600    1660    1530    1210     730     200   
000003240001962TAVG  540     720     580     800    1130    1680    1730    1900    1440     950     630     140   
000003240001963TAVG  330     330     840     950    1170    1310    1730    1550    1550    1190     650     510   
000003240001964TAVG  360     490     570     740     980    1520    1660    1830    1420    1120     750     420   
000003240001965TAVG  260     160     920     940    1100    1420    1660    1800    1370    1000     650     230   
000003240001966TAVG  210     450     770     920    1290    1480    1630    1730    1310    1030     760     390   
000003240001967TAVG  390     290     650     970    1260    1630    1540    1750    1260    1100     620     340   
000003240001968TAVG  600     430     650     920    1480    1630    1630    1560    1390    1250     690     350   
000003240001969TAVG  330     520     420     870     980    1580    1790    1770    1230    1060     810     210   
000003240001970TAVG  480     370     570     980     860    1640    1700    1530    1400    1060     690     580   
000003240001971TAVG  410     560     630    1030    1330    1530    1720    1640    1290    1110     380     350   
000003240001972TAVG  150     420     600     960     900    1580    1760    1920    1650    1060     470     140   
000003240001973TAVG  240     460     710     710    1230    1470    1690    1810    1710    1320     610     460   
000003240001974TAVG  390     160     940    1140    1190    1590    1620    1820    1340    1140     580     390   
000003240001975TAVG  460     320     690     690     900    1470    1510    1780    1520    1090     740     330   
000003240001976TAVG  270     390     690     790    1030    1480    1770    1740    1410    1230     880     460   
000003240001977TAVG  490     400     500     750    1090    1670    1650    1660    1530     990     860     460   
000003240001978TAVG  320     230     440     700     980    1290    1700    1650    1350     960     670     510   
000003240001979TAVG  430     450     420     940    1230    1370    1760    1710    1610    1140     590     280   
000003240001980TAVG  360     350     620     740    1120    1520    1570    1670    1500    1220     690     210   
000003240001981TAVG  550     430     450     780    1100    1300    1550    1720    1640    1310     730     410   
000003240001982TAVG  310     350     640     800    1150    1170    1720    1710    1320     920     810     410   
000003240001983TAVG  310     450     510     710     970    1040    1690    1640    1320    1120     580     690   
000003240001984TAVG  250     410     480     850    1140    1550    1720    1670    1520    1070     720     390   
000003240001985TAVG  360     470     770     570    1230    1370    1760    1800    1370    1020     550     560   
000003240001986TAVG  370     530     740     670     930    1340    1470    1600    1440    1060     580     330   
000003240001987TAVG  320     380     790     470    1030    1550    1540    1750     990    1050     490     400   
000003240001988TAVG  350     360     570     830    1080    1340    1630    1700    1390    1170     390     330   
000003240001989TAVG  400     420     430     700     810    1620    1640    1540    1290     860     810     320   
000003240001990TAVG  260     350     400     780    1270    1440    1500    1630    1410     900     560     460   
000003240001991TAVG  170     350     120     760    1080    1440    1630    1500    1620    1010     630     670   
000003240001992TAVG  130     450     620     780    1190    1460    1550    1720    1410     960     460     460   
000003240001993TAVG  330     410     440     720    1210    1320    1730    1520    1200    1010     470     290   
000003240001994TAVG  130     280     440     500     940    1140    1800    1480    1170    1050     410     170   
000003240001995TAVG  280     310     460     660    1050    1440    1680    1640    1280    1040     430     250   
000003240001996TAVG  130     440     610     740    1010    1520    1470    1870    1280    1070     540     200   
000003240001997TAVG  180     130     360     990    1050    1480    1740    1490    1340    1310     380     300   
000003240001998TAVG  150     360     390     690    1230    1530    1730    1420    1530    1040     560     100   
000003240001999TAVG  100     260     230     700    1000    1400    1630    1530    1450     950     580     170   
000003250001900TAVG-9999   -9999   -9999   -9999   -9999   -9999   -9999   -9999   -9999   -9999   -9999   -9999   
000003250001901TAVG-9999   -9999   -9999   -9999   -9999   -9999   -9999   -9999   -9999   -9999   -9999   -9999   
000003250001902TAVG-9999   -9999   -9999   -9999   -9999   -9999   -9999   -9999   -9999   -9999   -9999   -9999   
000003250001903TAVG-9999   -9999   -9999   -9999   -9999   -9999   -9999   -9999   -9999   -9999   -9999   -9999   
000003250001904TAVG-9999   -9999   -9999   -9999   -9999   -9999   -9999   -9999   -9999   -9999   -9999   -9999   
000003250001905TAVG-9999   -9999   -9999   -9999   -9999   -9999   -9999   -9999   -9999   -9999   -9999   -9999   
000003250001906TAVG-9999   -9999   -9999   -9999   -9999   -9999   -9999   -9999   -9999   -9999   -9999   -9999   
000003250001907TAVG-9999   -9999   -9999   -9999   -9999   -9999   -9999   -9999   -9999   -9999   -9999   -9999   
000003250001908TAVG-9999   -9999   -9999   -9999   -9999   -9999   -9999   -9999   -9999   -9999   -9999   -9999   
000003250001909TAVG-9999   -9999   -9999   -9999   -9999   -9999   -9999   -9999   -9999   -9999   -9999   -9999   
000003250001910TAVG-9999   -9999   -9999   -9999   -9999   -9999   -9999   -9999   -9999   -9999   -9999   -9999   
000003250001911TAVG-9999   -9999   -9999   -9999   -9999   -9999   -9999   -9999   -9999   -9999   -9999   -9999   
000003250001912TAVG-9999   -9999   -9999   -9999   -9999   -9999   -9999   -9999   -9999   -9999   -9999   -9999   
000003250001913TAVG-9999   -9999   -9999   -9999   -9999   -9999   -9999   -9999   -9999   -9999   -9999   -9999   
000003250001914TAVG-9999   -9999   -9999   -9999   -9999   -9999   -9999   -9999   -9999   -9999   -9999   -9999   
000003250001915TAVG-9999   -9999   -9999   -9999   -9999   -9999   -9999   -9999   -9999   -9999   -9999   -9999   
000003250001916TAVG-9999   -9999   -9999   -9999   -9999   -9999   -9999   -9999   -9999   -9999   -9999   -9999   
000003250001917TAVG-9999   -9999   -9999   -9999   -9999   -9999   -9999   -9999   -9999   -9999   -9999   -9999   
000003250001918TAVG-9999   -9999   -9999   -9999   -9999   -9999   -9999   -9999   -9999   -9999   -9999   -9999   
000003250001919TAVG  290     330     540     900     900    1670    1920    1740    1380    1120     580     320   
000003250001920TAVG  300     500     600     660    1330    1520    1610    1750    1270    1020     700     410   
000003250001921TAVG  350     510     680     860    1250    1360    1610    1700    1060    1250     620     640   
000003250001922TAVG  480     280     510     770    1240    1100    1550    1680    1630    1200     470     370   
000003250001923TAVG  360     290     420     800    1300    1560    1560    1790    1520    1320     900     460   
000003250001924TAVG  300     360     630     860    1070    1230    1860    1660    1370    1070     690     370   
000003250001925TAVG  310     350     590     770    1270    1280    1530    1620    1600    1130     780     390   
000003250001926TAVG  370     420     500    1020    1370    1340    1510    1680    1130    1030     620     600   
000003250001927TAVG  390     190     340     920    1080    1220    1690    1570    1620    1170     500     530   
000003250001928TAVG  370     390     700     930    1310    1530    1500    1360    1360    1320     650     660   
000003250001929TAVG  510      40     440     980    1170    1540    1680    1740    1220    1180     750     650   
000003250001930TAVG  410     590     760     890    1230    1400    1650    1670    1670    1040     710     370   
000003250001931TAVG  220     200     580     780    1190    1360    1660    1810    1280    1030     710     410   
000003250001932TAVG  320     490     490     510    1230    1420    1570    1710    1500    1050     510     380   
000003250001933TAVG  280     250     500     900    1220    1240    1620    1410    1450    1160     500     460   
000003250001934TAVG  410     430     520     490     990    1680    1720    1820    1360     850     570     690   
000003250001935TAVG  380     580     460     770    1090    1410    1710    1770    1420    1310     710     240   
000003250001936TAVG  250     220     560     990    1130    1670    1790    1610    1530    1180     790     530   
000003250001937TAVG  330     450     450     820    1140    1280    1480    1560    1250     960     560     340   
000003250001938TAVG  280     310     660     960    1070    1340    1770    1590    1370    1080     540     610   
000003250001939TAVG  490      60     250     780    1200    1370    1450    1680    1410    1080     730     310   
000003250001940TAVG  250     300     620     650    1030    1330    1500    1650    1240    1060     870     480   
000003250001941TAVG  390     350     610     840    1110    1180    1570    1570    1350     970     800     310   
000003250001942TAVG  390     600     460     850    1060    1430    1810    1780    1400     990     560     290   
000003250001943TAVG  170     240     370     720    1360    1310    1710    1600    1450    1320     890     480   
000003250001944TAVG  620     480     490    1020    1080    1530    1960    1710    1330     960     570     430   
000003250001945TAVG  210     540     310     540    1030    1600    1510    1740    1310    1010     610     540   
000003250001946TAVG  320     330     650     690    1180    1050    1500    1620    1220    1230     690     340   
000003250001947TAVG  260     130     420     890    1110    1470    1570    1530    1270    1020     690     340   
000003250001948TAVG  190     260     610     890    1250    1350    1770    1700    1010    1250     570     320   
000003250001949TAVG  420     340     560     810    1030    1360    1630    1480    1450    1040     620     430   
000003250001950TAVG  250     450     380    1040    1240    1460    1490    1670    1480    1020     400     330   
000003250001951TAVG  450     280     690     650     930    1320    1730    1680    1410    1150     820     360   
000003250001952TAVG  330     370     480     770     850    1410    1400    1800    1540    1090     660     630   
000003250001953TAVG  280     300     600     590     800    1370    1560    1620    1340    1100     330     400   
000003250001954TAVG  260     110     410     680     780    1560    1730    1780    1620    1010     630     320   
000003250001955TAVG  340     380     490     840    1090    1530    1560    1780    1560    1190     590     540   
000003250001956TAVG  470     240     510     650    1110    1340    1520    1610    1440    1180     820     410   
000003250001957TAVG  450     270     370     890    1080    1390    1600    1630    1310    1280     910     390   
000003250001958TAVG  470     300     510     680    1110    1430    1560    1550    1230    1140     770     290   
000003250001959TAVG  200     170     640     800    1090    1370    1650    1650    1350    1280     870     310   
000003250001960TAVG  310     330     630     730    1060    1610    1530    1460    1400    1160     580     330   
000003250001961TAVG  250     170     510     570    1110    1320    1520    1570    1460    1180     730     150   
